{
  "transactions": [
    {
      "hash": "0xed94a9ebcae3f0689c80d3d87f05c97b6a09405b4c5deb99576586362f45f211",
      "transactionType": "CALL",
      "contractName": null,
      "contractAddress": "0xd69b4f5faf6e3626f1e9c595a170f388798f713d",
      "function": "setAllowlist(address[],bool[])",
      "arguments": [
        "[0x2170Ed0880ac9A755fd29B2688956BD959F933F8, 0x55d398326f99059fF775485246999027B3197955, 0x8AC76a51cc950d9822D68b83fE1Ad97B32Cd580d, 0x1D2F0da169ceB9fC7B3144628dB156f3F6c60dBE, 0x85EAC5Ac2F758618dFa09bDbe0cf174e7d574D5B, 0xbA2aE424d960c26247Dd6c32edC70B295c744C43, 0x1Ba42e5193dfA8B03D15dd1B86a3113bbBEF8Eeb, 0x3EE2200Efb3400fAbB9AacF31297cBdD1d435D47, 0xF8A0BF9cF54Bb92F17374d9e9A321E6a111a51bD, 0x8fF795a6F4D97E7887C79beA79aba5cc76444aDf, 0x1AF3F329e8BE154074D8769D1FFa4eE058B1DBc3, 0x76A797A59Ba2C17726896976B7B3747BfD1d220f, 0x8d0D000Ee44948FC98c9B98A4FA4921476f08B0d, 0x5d3a1Ff2b6BAb83b63cd9AD0787074081a52ef34, 0x22b1458e780F8fA71E2F84502cEe8B5A3cc731Fa, 0x4338665CBB7B2485A8855A139b75D5e34AB0DB94, 0x1CE0c2827e2eF14D5C4f29a091d735A204794041, 0x2859e4544C4bB03966803b044A93563Bd2D0DD4D, 0x21cAef8A43163Eea865baeE23b9C2E327696A3bf, 0x44F161aE29361E332dEA039DFA2F404E0bC5B5Cc, 0x7083609fCE4d1d8Dc0C979AAb8c869Ea2C873402, 0xBf5140A22578168FD562DCcF235E5D43A02ce9B1, 0x000Ae314E2A2172a039B26378814C252734f556A, 0x039cB485212f996A9DBb85A9a75d898F94d38dA6, 0x392004BEe213F1FF580C867359C246924f21E6Ad, 0x00000000000000000000000000000000000010E0, 0xfb6115445Bff7b52FeB98650C87f44907E58f802, 0x0Eb3a705fc54725037CC9e008bDede697f62F335, 0xba5eD44733953d79717F6269357C77718C8Ba5ed, 0x011EBe7d75E2C9D1E0bD0be0bEf5C36f0A90075F]",
        "[true, true, true, true, true, true, true, true, true, true, true, true, true, true, true, true, true, true, true, true, true, true, true, true, true, true, true, true, true, true]"
      ],
      "transaction": {
        "from": "0x3660362beb3a95ce16d981e7d30e1e025e741393",
        "to": "0xd69b4f5faf6e3626f1e9c595a170f388798f713d",
        "gas": "0x10913c",
        "value": "0x0",
        "input": "0x72faa8df00000000000000000000000000000000000000000000000000000000000000400000000000000000000000000000000000000000000000000000000000000420000000000000000000000000000000000000000000000000000000000000001e0000000000000000000000002170ed0880ac9a755fd29b2688956bd959f933f800000000000000000000000055d398326f99059ff775485246999027b31979550000000000000000000000008ac76a51cc950d9822d68b83fe1ad97b32cd580d0000000000000000000000001d2f0da169ceb9fc7b3144628db156f3f6c60dbe00000000000000000000000085eac5ac2f758618dfa09bdbe0cf174e7d574d5b000000000000000000000000ba2ae424d960c26247dd6c32edc70b295c744c430000000000000000000000001ba42e5193dfa8b03d15dd1b86a3113bbbef8eeb0000000000000000000000003ee2200efb3400fabb9aacf31297cbdd1d435d47000000000000000000000000f8a0bf9cf54bb92f17374d9e9a321e6a111a51bd0000000000000000000000008ff795a6f4d97e7887c79bea79aba5cc76444adf0000000000000000000000001af3f329e8be154074d8769d1ffa4ee058b1dbc300000000000000000000000076a797a59ba2c17726896976b7b3747bfd1d220f0000000000000000000000008d0d000ee44948fc98c9b98a4fa4921476f08b0d0000000000000000000000005d3a1ff2b6bab83b63cd9ad0787074081a52ef3400000000000000000000000022b1458e780f8fa71e2f84502cee8b5a3cc731fa0000000000000000000000004338665cbb7b2485a8855a139b75d5e34ab0db940000000000000000000000001ce0c2827e2ef14d5c4f29a091d735a2047940410000000000000000000000002859e4544c4bb03966803b044a93563bd2d0dd4d00000000000000000000000021caef8a43163eea865baee23b9c2e327696a3bf00000000000000000000000044f161ae29361e332dea039dfa2f404e0bc5b5cc0000000000000000000000007083609fce4d1d8dc0c979aab8c869ea2c873402000000000000000000000000bf5140a22578168fd562dccf235e5d43a02ce9b1000000000000000000000000000ae314e2a2172a039b26378814c252734f556a000000000000000000000000039cb485212f996a9dbb85a9a75d898f94d38da6000000000000000000000000392004bee213f1ff580c867359c246924f21e6ad00000000000000000000000000000000000000000000000000000000000010e0000000000000000000000000fb6115445bff7b52feb98650c87f44907e58f8020000000000000000000000000eb3a705fc54725037cc9e008bdede697f62f335000000000000000000000000ba5ed44733953d79717f6269357c77718c8ba5ed000000000000000000000000011ebe7d75e2c9d1e0bd0be0bef5c36f0a90075f000000000000000000000000000000000000000000000000000000000000001e000000000000000000000000000000000000000000000000000000000000000100000000000000000000000000000000000000000000000000000000000000010000000000000000000000000000000000000000000000000000000000000001000000000000000000000000000000000000000000000000000000000000000100000000000000000000000000000000000000000000000000000000000000010000000000000000000000000000000000000000000000000000000000000001000000000000000000000000000000000000000000000000000000000000000100000000000000000000000000000000000000000000000000000000000000010000000000000000000000000000000000000000000000000000000000000001000000000000000000000000000000000000000000000000000000000000000100000000000000000000000000000000000000000000000000000000000000010000000000000000000000000000000000000000000000000000000000000001000000000000000000000000000000000000000000000000000000000000000100000000000000000000000000000000000000000000000000000000000000010000000000000000000000000000000000000000000000000000000000000001000000000000000000000000000000000000000000000000000000000000000100000000000000000000000000000000000000000000000000000000000000010000000000000000000000000000000000000000000000000000000000000001000000000000000000000000000000000000000000000000000000000000000100000000000000000000000000000000000000000000000000000000000000010000000000000000000000000000000000000000000000000000000000000001000000000000000000000000000000000000000000000000000000000000000100000000000000000000000000000000000000000000000000000000000000010000000000000000000000000000000000000000000000000000000000000001000000000000000000000000000000000000000000000000000000000000000100000000000000000000000000000000000000000000000000000000000000010000000000000000000000000000000000000000000000000000000000000001000000000000000000000000000000000000000000000000000000000000000100000000000000000000000000000000000000000000000000000000000000010000000000000000000000000000000000000000000000000000000000000001",
        "nonce": "0x86",
        "chainId": "0x61"
      },
      "additionalContracts": [],
      "isFixedGasLimit": false
    },
    {
      "hash": "0x210da2439d27d2fb2cbbabf30a6466b92b54984cfd2f899d054c9c3581aa35fb",
      "transactionType": "CALL",
      "contractName": null,
      "contractAddress": "0xd69b4f5faf6e3626f1e9c595a170f388798f713d",
      "function": "setAllowlist(address[],bool[])",
      "arguments": [
        "[0x0D8Ce2A99Bb6e3B7Db580eD848240e4a0F9aE153, 0xa2B726B1145A4773F68593CF171187d8EBe4d495, 0x924fa68a0FC644485b8df8AbfA0A41C2e7744444, 0xFe930c2d63AeD9b82fC4DBC801920dD2c1a3224F, 0x031b41e504677879370e9DBcF937283A8691Fa7f, 0x40af3827F39D0EAcBF4A168f8D4ee67c121D11c9, 0xA697e272a73744b343528C3Bc4702F2565b2F422, 0x6418c0dd099a9FDA397C766304CDd918233E8847, 0x0E09FaBB73Bd3Ade0a17ECC321fD13a19e81cE82, 0x997A58129890bBdA032231A52eD1ddC845fc18e1, 0x156ab3346823B651294766e23e6Cf87254d68962, 0x6985884C4392D348587B19cb9eAAf157F13271cd, 0x904567252D8F48555b7447c67dCA23F0372E16be, 0xc5f0f7b66764F6ec8C8Dff7BA683102295E16409, 0xcf3232B85b43BCa90E51D38cc06Cc8bB8C8A3E36, 0x0E63B9C287E32A05E6b9AB8ee8dF88A2760225A9, 0x352Cb5E19b12FC216548a2677bD0fce83BaE434B, 0x20eE7B720f4E4c4FFcB00C4065cdae55271aECCa, 0x70f2EADf1CA1969FF42b0c78e9DA519e8937cbaF, 0xfb5B838b6cfEEdC2873aB27866079AC55363D37E, 0x986854779804799C1d68867F5E03e601E781e41b, 0x6bdcCe4A559076e37755a78Ce0c06214E59e4444, 0xAC23B90A79504865D52B49B327328411a23d4dB2, 0xb3Ed0A426155B79B898849803E3B36552f7ED507, 0x365DE036A1F7dcCb621530d517133521debB2013, 0xB0D502E938ed5f4df2E681fE6E419ff29631d62b, 0x715D400F88C167884bbCc41C5FeA407ed4D2f8A0, 0x4B0F1812e5Df2A09796481Ff14017e6005508003, 0x4BfAa776991E85e5f8b1255461cbbd216cFc714f, 0x52CE071Bd9b1C4B00A0b92D298c512478CaD67e8]",
        "[true, true, true, true, true, true, true, true, true, true, true, true, true, true, true, true, true, true, true, true, true, true, true, true, true, true, true, true, true, true]"
      ],
      "transaction": {
        "from": "0x3660362beb3a95ce16d981e7d30e1e025e741393",
        "to": "0xd69b4f5faf6e3626f1e9c595a170f388798f713d",
        "gas": "0x1092a8",
        "value": "0x0",
        "input": "0x72faa8df00000000000000000000000000000000000000000000000000000000000000400000000000000000000000000000000000000000000000000000000000000420000000000000000000000000000000000000000000000000000000000000001e0000000000000000000000000d8ce2a99bb6e3b7db580ed848240e4a0f9ae153000000000000000000000000a2b726b1145a4773f68593cf171187d8ebe4d495000000000000000000000000924fa68a0fc644485b8df8abfa0a41c2e7744444000000000000000000000000fe930c2d63aed9b82fc4dbc801920dd2c1a3224f000000000000000000000000031b41e504677879370e9dbcf937283a8691fa7f00000000000000000000000040af3827f39d0eacbf4a168f8d4ee67c121d11c9000000000000000000000000a697e272a73744b343528c3bc4702f2565b2f4220000000000000000000000006418c0dd099a9fda397c766304cdd918233e88470000000000000000000000000e09fabb73bd3ade0a17ecc321fd13a19e81ce82000000000000000000000000997a58129890bbda032231a52ed1ddc845fc18e1000000000000000000000000156ab3346823b651294766e23e6cf87254d689620000000000000000000000006985884c4392d348587b19cb9eaaf157f13271cd000000000000000000000000904567252d8f48555b7447c67dca23f0372e16be000000000000000000000000c5f0f7b66764f6ec8c8dff7ba683102295e16409000000000000000000000000cf3232b85b43bca90e51d38cc06cc8bb8c8a3e360000000000000000000000000e63b9c287e32a05e6b9ab8ee8df88a2760225a9000000000000000000000000352cb5e19b12fc216548a2677bd0fce83bae434b00000000000000000000000020ee7b720f4e4c4ffcb00c4065cdae55271aecca00000000000000000000000070f2eadf1ca1969ff42b0c78e9da519e8937cbaf000000000000000000000000fb5b838b6cfeedc2873ab27866079ac55363d37e000000000000000000000000986854779804799c1d68867f5e03e601e781e41b0000000000000000000000006bdcce4a559076e37755a78ce0c06214e59e4444000000000000000000000000ac23b90a79504865d52b49b327328411a23d4db2000000000000000000000000b3ed0a426155b79b898849803e3b36552f7ed507000000000000000000000000365de036a1f7dccb621530d517133521debb2013000000000000000000000000b0d502e938ed5f4df2e681fe6e419ff29631d62b000000000000000000000000715d400f88c167884bbcc41c5fea407ed4d2f8a00000000000000000000000004b0f1812e5df2a09796481ff14017e60055080030000000000000000000000004bfaa776991e85e5f8b1255461cbbd216cfc714f00000000000000000000000052ce071bd9b1c4b00a0b92d298c512478cad67e8000000000000000000000000000000000000000000000000000000000000001e000000000000000000000000000000000000000000000000000000000000000100000000000000000000000000000000000000000000000000000000000000010000000000000000000000000000000000000000000000000000000000000001000000000000000000000000000000000000000000000000000000000000000100000000000000000000000000000000000000000000000000000000000000010000000000000000000000000000000000000000000000000000000000000001000000000000000000000000000000000000000000000000000000000000000100000000000000000000000000000000000000000000000000000000000000010000000000000000000000000000000000000000000000000000000000000001000000000000000000000000000000000000000000000000000000000000000100000000000000000000000000000000000000000000000000000000000000010000000000000000000000000000000000000000000000000000000000000001000000000000000000000000000000000000000000000000000000000000000100000000000000000000000000000000000000000000000000000000000000010000000000000000000000000000000000000000000000000000000000000001000000000000000000000000000000000000000000000000000000000000000100000000000000000000000000000000000000000000000000000000000000010000000000000000000000000000000000000000000000000000000000000001000000000000000000000000000000000000000000000000000000000000000100000000000000000000000000000000000000000000000000000000000000010000000000000000000000000000000000000000000000000000000000000001000000000000000000000000000000000000000000000000000000000000000100000000000000000000000000000000000000000000000000000000000000010000000000000000000000000000000000000000000000000000000000000001000000000000000000000000000000000000000000000000000000000000000100000000000000000000000000000000000000000000000000000000000000010000000000000000000000000000000000000000000000000000000000000001000000000000000000000000000000000000000000000000000000000000000100000000000000000000000000000000000000000000000000000000000000010000000000000000000000000000000000000000000000000000000000000001",
        "nonce": "0x87",
        "chainId": "0x61"
      },
      "additionalContracts": [],
      "isFixedGasLimit": false
    },
    {
      "hash": "0xfb74367e68c5279e17ae4b0cbec6a045f256bccd4cb44a1470f92c3c7ecd7ee4",
      "transactionType": "CALL",
      "contractName": null,
      "contractAddress": "0xd69b4f5faf6e3626f1e9c595a170f388798f713d",
      "function": "setAllowlist(address[],bool[])",
      "arguments": [
        "[0x30117E4bC17d7B044194b76A38365C53b72F7D49, 0x7324c7C0d95CEBC73eEa7E85CbAac0dBdf88a05b, 0x1F12B85aAC097E43Aa1555b2881E98a51090e9A6, 0x405FBc9004D857903bFD6b3357792D71a50726b0, 0x101d82428437127bF1608F699CD651e6Abf9766E, 0x92aa03137385F18539301349dcfC9EbC923fFb10, 0x8f86a15EC17cb3369d8b3E666dAdBC11daA82b79, 0xD41FDb03Ba84762dD66a0af1a6C8540FF1ba5dfb, 0x208bF3E7dA9639f1Eaefa2DE78c23396B0682025, 0xf2b51CC1850fEd939658317a22d73d3482767591, 0x95034f653D5D161890836Ad2B6b8cc49D14e029a, 0xFDFfB411C4A70AA7C95D5C981a6Fb4Da867e1111, 0x111111111117dC0aa78b770fA6A738034120C302, 0x0DF0587216a4a1bB7d5082fdc491d93d2dD4B413, 0x3d4f0513E8a29669B960f9dBcA61861548A9A760, 0xdA7AD9dea9397cffdDAE2F8a052B82f1484252B3, 0xD82544bf0dfe8385eF8FA34D67e6e4940CC63e16, 0x97693439EA2f0ecdeb9135881E49f354656a911c, 0x9AC98382D921314D1D269171634b68E933434685, 0x25A528af62e56512A19ce8c3cAB427807c28CC19, 0x5A110fC00474038f6c02E89C707D638602EA44B5, 0xc8EF4398664b2eeD5ee560544f659083d98A3888, 0x90bbdDbF3223363898065b9C736e2B86C655762b, 0x8A063A9ff4dE28dcB87117cc759BE6cE70e09F81, 0x40b8129B786D766267A7a118cF8C07E31CDB6Fde, 0xe48A3d7d0Bc88d552f730B62c006bC925eadB9eE, 0xDf24f8c21Cb404B3031a450D8e049D6E39FC1fA5, 0x90c48855Bb69f9D2C261Efd0D8C7F35990F2dd6f, 0xe6DF05CE8C8301223373CF5B969AFCb1498c5528, 0x2066A3d706509f7A75003503250882E38166Ba6d]",
        "[true, true, true, true, true, true, true, true, true, true, true, true, true, true, true, true, true, true, true, true, true, true, true, true, true, true, true, true, true, true]"
      ],
      "transaction": {
        "from": "0x3660362beb3a95ce16d981e7d30e1e025e741393",
        "to": "0xd69b4f5faf6e3626f1e9c595a170f388798f713d",
        "gas": "0x109298",
        "value": "0x0",
        "input": "0x72faa8df00000000000000000000000000000000000000000000000000000000000000400000000000000000000000000000000000000000000000000000000000000420000000000000000000000000000000000000000000000000000000000000001e00000000000000000000000030117e4bc17d7b044194b76a38365c53b72f7d490000000000000000000000007324c7c0d95cebc73eea7e85cbaac0dbdf88a05b0000000000000000000000001f12b85aac097e43aa1555b2881e98a51090e9a6000000000000000000000000405fbc9004d857903bfd6b3357792d71a50726b0000000000000000000000000101d82428437127bf1608f699cd651e6abf9766e00000000000000000000000092aa03137385f18539301349dcfc9ebc923ffb100000000000000000000000008f86a15ec17cb3369d8b3e666dadbc11daa82b79000000000000000000000000d41fdb03ba84762dd66a0af1a6c8540ff1ba5dfb000000000000000000000000208bf3e7da9639f1eaefa2de78c23396b0682025000000000000000000000000f2b51cc1850fed939658317a22d73d348276759100000000000000000000000095034f653d5d161890836ad2b6b8cc49d14e029a000000000000000000000000fdffb411c4a70aa7c95d5c981a6fb4da867e1111000000000000000000000000111111111117dc0aa78b770fa6a738034120c3020000000000000000000000000df0587216a4a1bb7d5082fdc491d93d2dd4b4130000000000000000000000003d4f0513e8a29669b960f9dbca61861548a9a760000000000000000000000000da7ad9dea9397cffddae2f8a052b82f1484252b3000000000000000000000000d82544bf0dfe8385ef8fa34d67e6e4940cc63e1600000000000000000000000097693439ea2f0ecdeb9135881e49f354656a911c0000000000000000000000009ac98382d921314d1d269171634b68e93343468500000000000000000000000025a528af62e56512a19ce8c3cab427807c28cc190000000000000000000000005a110fc00474038f6c02e89c707d638602ea44b5000000000000000000000000c8ef4398664b2eed5ee560544f659083d98a388800000000000000000000000090bbddbf3223363898065b9c736e2b86c655762b0000000000000000000000008a063a9ff4de28dcb87117cc759be6ce70e09f8100000000000000000000000040b8129b786d766267a7a118cf8c07e31cdb6fde000000000000000000000000e48a3d7d0bc88d552f730b62c006bc925eadb9ee000000000000000000000000df24f8c21cb404b3031a450d8e049d6e39fc1fa500000000000000000000000090c48855bb69f9d2c261efd0d8c7f35990f2dd6f000000000000000000000000e6df05ce8c8301223373cf5b969afcb1498c55280000000000000000000000002066a3d706509f7a75003503250882e38166ba6d000000000000000000000000000000000000000000000000000000000000001e000000000000000000000000000000000000000000000000000000000000000100000000000000000000000000000000000000000000000000000000000000010000000000000000000000000000000000000000000000000000000000000001000000000000000000000000000000000000000000000000000000000000000100000000000000000000000000000000000000000000000000000000000000010000000000000000000000000000000000000000000000000000000000000001000000000000000000000000000000000000000000000000000000000000000100000000000000000000000000000000000000000000000000000000000000010000000000000000000000000000000000000000000000000000000000000001000000000000000000000000000000000000000000000000000000000000000100000000000000000000000000000000000000000000000000000000000000010000000000000000000000000000000000000000000000000000000000000001000000000000000000000000000000000000000000000000000000000000000100000000000000000000000000000000000000000000000000000000000000010000000000000000000000000000000000000000000000000000000000000001000000000000000000000000000000000000000000000000000000000000000100000000000000000000000000000000000000000000000000000000000000010000000000000000000000000000000000000000000000000000000000000001000000000000000000000000000000000000000000000000000000000000000100000000000000000000000000000000000000000000000000000000000000010000000000000000000000000000000000000000000000000000000000000001000000000000000000000000000000000000000000000000000000000000000100000000000000000000000000000000000000000000000000000000000000010000000000000000000000000000000000000000000000000000000000000001000000000000000000000000000000000000000000000000000000000000000100000000000000000000000000000000000000000000000000000000000000010000000000000000000000000000000000000000000000000000000000000001000000000000000000000000000000000000000000000000000000000000000100000000000000000000000000000000000000000000000000000000000000010000000000000000000000000000000000000000000000000000000000000001",
        "nonce": "0x88",
        "chainId": "0x61"
      },
      "additionalContracts": [],
      "isFixedGasLimit": false
    },
    {
      "hash": "0x31990a2d90276fb854b7b28b830bb6697f731b604e86d0efb30be266deb67c5f",
      "transactionType": "CALL",
      "contractName": null,
      "contractAddress": "0xd69b4f5faf6e3626f1e9c595a170f388798f713d",
      "function": "setAllowlist(address[],bool[])",
      "arguments": [
        "[0x7Ddc52c4De30e94Be3A6A0A2b259b2850f421989, 0xc6BDFC4f2E90196738873E824a9eFa03F7c64176, 0xA5C8e1513B6A08334b479fe4D71F1253259469BE, 0xaf44A1E76F56eE12ADBB7ba8acD3CbD474888122, 0x4B948d64dE1F71fCd12fB586f4c776421a35b3eE, 0x62D0A8458eD7719FDAF978fe5929C6D342B0bFcE, 0xb9E1Fd5A02D3A33b25a14d661414E6ED6954a721, 0xc07e1300dc138601FA6B0b59f8D0FA477e690589, 0x33d08D8C7a168333a85285a68C0042b39fC3741D, 0x8C907e0a72C3d55627E853f4ec6a96b0C8771145, 0x88f1A5ae2A3BF98AEAF342D26B30a79438c9142e, 0x1219c409faBe2C27Bd0D1A565daeed9Bd9f271dE, 0x0782b6d8c4551B9760e74c0545a9bCD90bdc41E5, 0x0C69199C1562233640e0Db5Ce2c399A88eB507C7, 0x6907A5986C4950Bdaf2F81828Ec0737ce787519f, 0xb0b92de23bAa85fB06208277E925ceD53edab482, 0x92516e0DDf1dDBF7FAB1b79CaC26689fDC5ba8e6, 0x5aFadCd1E8E3CA78Ee2D37100102f2aec8Bc0Aa8, 0xb86AbCb37C3A4B64f74f59301AFF131a1BEcC787, 0x5de3939b2F811A61d830E6F52d13B066881412ab, 0x0000028a2eB8346cd5c0267856aB7594B7a55308, 0xc748673057861a797275CD8A068AbB95A902e8de, 0x00f8Da33734FeB9b946fEC2228C25072D2e2E41f, 0xF00600eBC7633462BC4F9C61eA2cE99F5AAEBd4a, 0xf486ad071f3bEE968384D2E39e2D8aF0fCf6fd46, 0x3E5d4f8aee0D9B3082d5f6DA5D6e225D17ba9ea0, 0xA744764431F756f9768b4052f94246101962df86, 0xA227Cc36938f0c9E09CE0e64dfab226cad739447, 0x595dEaad1eB5476Ff1E649fDb7EFC36F1E4679cc, 0x6a2608Dabe09bc1128EEC7275B92DFB939D5Db3f]",
        "[true, true, true, true, true, true, true, true, true, true, true, true, true, true, true, true, true, true, true, true, true, true, true, true, true, true, true, true, true, true]"
      ],
      "transaction": {
        "from": "0x3660362beb3a95ce16d981e7d30e1e025e741393",
        "to": "0xd69b4f5faf6e3626f1e9c595a170f388798f713d",
        "gas": "0x109245",
        "value": "0x0",
        "input": "0x72faa8df00000000000000000000000000000000000000000000000000000000000000400000000000000000000000000000000000000000000000000000000000000420000000000000000000000000000000000000000000000000000000000000001e0000000000000000000000007ddc52c4de30e94be3a6a0a2b259b2850f421989000000000000000000000000c6bdfc4f2e90196738873e824a9efa03f7c64176000000000000000000000000a5c8e1513b6a08334b479fe4d71f1253259469be000000000000000000000000af44a1e76f56ee12adbb7ba8acd3cbd4748881220000000000000000000000004b948d64de1f71fcd12fb586f4c776421a35b3ee00000000000000000000000062d0a8458ed7719fdaf978fe5929c6d342b0bfce000000000000000000000000b9e1fd5a02d3a33b25a14d661414e6ed6954a721000000000000000000000000c07e1300dc138601fa6b0b59f8d0fa477e69058900000000000000000000000033d08d8c7a168333a85285a68c0042b39fc3741d0000000000000000000000008c907e0a72c3d55627e853f4ec6a96b0c877114500000000000000000000000088f1a5ae2a3bf98aeaf342d26b30a79438c9142e0000000000000000000000001219c409fabe2c27bd0d1a565daeed9bd9f271de0000000000000000000000000782b6d8c4551b9760e74c0545a9bcd90bdc41e50000000000000000000000000c69199c1562233640e0db5ce2c399a88eb507c70000000000000000000000006907a5986c4950bdaf2f81828ec0737ce787519f000000000000000000000000b0b92de23baa85fb06208277e925ced53edab48200000000000000000000000092516e0ddf1ddbf7fab1b79cac26689fdc5ba8e60000000000000000000000005afadcd1e8e3ca78ee2d37100102f2aec8bc0aa8000000000000000000000000b86abcb37c3a4b64f74f59301aff131a1becc7870000000000000000000000005de3939b2f811a61d830e6f52d13b066881412ab0000000000000000000000000000028a2eb8346cd5c0267856ab7594b7a55308000000000000000000000000c748673057861a797275cd8a068abb95a902e8de00000000000000000000000000f8da33734feb9b946fec2228c25072d2e2e41f000000000000000000000000f00600ebc7633462bc4f9c61ea2ce99f5aaebd4a000000000000000000000000f486ad071f3bee968384d2e39e2d8af0fcf6fd460000000000000000000000003e5d4f8aee0d9b3082d5f6da5d6e225d17ba9ea0000000000000000000000000a744764431f756f9768b4052f94246101962df86000000000000000000000000a227cc36938f0c9e09ce0e64dfab226cad739447000000000000000000000000595deaad1eb5476ff1e649fdb7efc36f1e4679cc0000000000000000000000006a2608dabe09bc1128eec7275b92dfb939d5db3f000000000000000000000000000000000000000000000000000000000000001e000000000000000000000000000000000000000000000000000000000000000100000000000000000000000000000000000000000000000000000000000000010000000000000000000000000000000000000000000000000000000000000001000000000000000000000000000000000000000000000000000000000000000100000000000000000000000000000000000000000000000000000000000000010000000000000000000000000000000000000000000000000000000000000001000000000000000000000000000000000000000000000000000000000000000100000000000000000000000000000000000000000000000000000000000000010000000000000000000000000000000000000000000000000000000000000001000000000000000000000000000000000000000000000000000000000000000100000000000000000000000000000000000000000000000000000000000000010000000000000000000000000000000000000000000000000000000000000001000000000000000000000000000000000000000000000000000000000000000100000000000000000000000000000000000000000000000000000000000000010000000000000000000000000000000000000000000000000000000000000001000000000000000000000000000000000000000000000000000000000000000100000000000000000000000000000000000000000000000000000000000000010000000000000000000000000000000000000000000000000000000000000001000000000000000000000000000000000000000000000000000000000000000100000000000000000000000000000000000000000000000000000000000000010000000000000000000000000000000000000000000000000000000000000001000000000000000000000000000000000000000000000000000000000000000100000000000000000000000000000000000000000000000000000000000000010000000000000000000000000000000000000000000000000000000000000001000000000000000000000000000000000000000000000000000000000000000100000000000000000000000000000000000000000000000000000000000000010000000000000000000000000000000000000000000000000000000000000001000000000000000000000000000000000000000000000000000000000000000100000000000000000000000000000000000000000000000000000000000000010000000000000000000000000000000000000000000000000000000000000001",
        "nonce": "0x89",
        "chainId": "0x61"
      },
      "additionalContracts": [],
      "isFixedGasLimit": false
    },
    {
      "hash": "0x31f07f220317673fe83a5154cbdd14cde8b9944499ed396232fbfee19f666407",
      "transactionType": "CALL",
      "contractName": null,
      "contractAddress": "0xd69b4f5faf6e3626f1e9c595a170f388798f713d",
      "function": "setAllowlist(address[],bool[])",
      "arguments": [
        "[0x0F0df6cB17ee5E883eddFEf9153fC6036BDB4e37, 0xBc7d6B50616989655AfD682fb42743507003056D, 0x8b1f4432F943c465A973FeDC6d7aa50Fc96f1f65, 0xa3f020a5C92e15be13CAF0Ee5C95cF79585EeCC9, 0x9BAFC8d4b487cEBff201721702507a3E2C67ad79, 0x91152B4Ef635403efBAe860edD0F8c321d7c035d, 0x9d1A7A3191102e9F900Faa10540837ba84dCBAE7, 0xF81aC2E1A0373ddE1BcE01E2Fe694a9b7E3bfcB9, 0xd23A186A78c0B3B805505E5f8ea4083295ef9f3a, 0xB2BD0749DBE21f623d9BABa856D3B0f0e1BFEc9C, 0x947950BcC74888a40Ffa2593C5798F11Fc9124C4, 0x8b9Ee39195eA99d6ddD68030F44131116bc218F6, 0x0A8D6C86e1bcE73fE4D0bD531e1a567306836EA5, 0x0c8382719ef242CaE2247E4DeCb2891fBF699818, 0x23AE4fd8E7844cdBc97775496eBd0E8248656028]",
        "[true, true, true, true, true, true, true, true, true, true, true, true, true, true, true]"
      ],
      "transaction": {
        "from": "0x3660362beb3a95ce16d981e7d30e1e025e741393",
        "to": "0xd69b4f5faf6e3626f1e9c595a170f388798f713d",
        "gas": "0x88b9d",
        "value": "0x0",
        "input": "0x72faa8df00000000000000000000000000000000000000000000000000000000000000400000000000000000000000000000000000000000000000000000000000000240000000000000000000000000000000000000000000000000000000000000000f0000000000000000000000000f0df6cb17ee5e883eddfef9153fc6036bdb4e37000000000000000000000000bc7d6b50616989655afd682fb42743507003056d0000000000000000000000008b1f4432f943c465a973fedc6d7aa50fc96f1f65000000000000000000000000a3f020a5c92e15be13caf0ee5c95cf79585eecc90000000000000000000000009bafc8d4b487cebff201721702507a3e2c67ad7900000000000000000000000091152b4ef635403efbae860edd0f8c321d7c035d0000000000000000000000009d1a7a3191102e9f900faa10540837ba84dcbae7000000000000000000000000f81ac2e1a0373dde1bce01e2fe694a9b7e3bfcb9000000000000000000000000d23a186a78c0b3b805505e5f8ea4083295ef9f3a000000000000000000000000b2bd0749dbe21f623d9baba856d3b0f0e1bfec9c000000000000000000000000947950bcc74888a40ffa2593c5798f11fc9124c40000000000000000000000008b9ee39195ea99d6ddd68030f44131116bc218f60000000000000000000000000a8d6c86e1bce73fe4d0bd531e1a567306836ea50000000000000000000000000c8382719ef242cae2247e4decb2891fbf69981800000000000000000000000023ae4fd8e7844cdbc97775496ebd0e8248656028000000000000000000000000000000000000000000000000000000000000000f000000000000000000000000000000000000000000000000000000000000000100000000000000000000000000000000000000000000000000000000000000010000000000000000000000000000000000000000000000000000000000000001000000000000000000000000000000000000000000000000000000000000000100000000000000000000000000000000000000000000000000000000000000010000000000000000000000000000000000000000000000000000000000000001000000000000000000000000000000000000000000000000000000000000000100000000000000000000000000000000000000000000000000000000000000010000000000000000000000000000000000000000000000000000000000000001000000000000000000000000000000000000000000000000000000000000000100000000000000000000000000000000000000000000000000000000000000010000000000000000000000000000000000000000000000000000000000000001000000000000000000000000000000000000000000000000000000000000000100000000000000000000000000000000000000000000000000000000000000010000000000000000000000000000000000000000000000000000000000000001",
        "nonce": "0x8a",
        "chainId": "0x61"
      },
      "additionalContracts": [],
      "isFixedGasLimit": false
    }
  ],
  "receipts": [
    {
      "status": "0x1",
      "cumulativeGasUsed": "0x7a9774",
      "logs": [
        {
          "address": "0xd69b4f5faf6e3626f1e9c595a170f388798f713d",
          "topics": [
            "0x13518841ff4d3053cb7703afaa39b145c6331829b982d42f4d4fd7568b2e8e24",
            "0x0000000000000000000000002170ed0880ac9a755fd29b2688956bd959f933f8"
          ],
          "data": "0x0000000000000000000000000000000000000000000000000000000000000001",
          "blockHash": "0xd2b787516fe9ea0df1e5f0e234a0459cdde25d7380365c3ed3934bef9313b391",
          "blockNumber": "0x6ca64a0",
          "blockTimestamp": "0x6a32be23",
          "transactionHash": "0xed94a9ebcae3f0689c80d3d87f05c97b6a09405b4c5deb99576586362f45f211",
          "transactionIndex": "0x1d",
          "logIndex": "0x6a",
          "removed": false
        },
        {
          "address": "0xd69b4f5faf6e3626f1e9c595a170f388798f713d",
          "topics": [
            "0x13518841ff4d3053cb7703afaa39b145c6331829b982d42f4d4fd7568b2e8e24",
            "0x00000000000000000000000055d398326f99059ff775485246999027b3197955"
          ],
          "data": "0x0000000000000000000000000000000000000000000000000000000000000001",
          "blockHash": "0xd2b787516fe9ea0df1e5f0e234a0459cdde25d7380365c3ed3934bef9313b391",
          "blockNumber": "0x6ca64a0",
          "blockTimestamp": "0x6a32be23",
          "transactionHash": "0xed94a9ebcae3f0689c80d3d87f05c97b6a09405b4c5deb99576586362f45f211",
          "transactionIndex": "0x1d",
          "logIndex": "0x6b",
          "removed": false
        },
        {
          "address": "0xd69b4f5faf6e3626f1e9c595a170f388798f713d",
          "topics": [
            "0x13518841ff4d3053cb7703afaa39b145c6331829b982d42f4d4fd7568b2e8e24",
            "0x0000000000000000000000008ac76a51cc950d9822d68b83fe1ad97b32cd580d"
          ],
          "data": "0x0000000000000000000000000000000000000000000000000000000000000001",
          "blockHash": "0xd2b787516fe9ea0df1e5f0e234a0459cdde25d7380365c3ed3934bef9313b391",
          "blockNumber": "0x6ca64a0",
          "blockTimestamp": "0x6a32be23",
          "transactionHash": "0xed94a9ebcae3f0689c80d3d87f05c97b6a09405b4c5deb99576586362f45f211",
          "transactionIndex": "0x1d",
          "logIndex": "0x6c",
          "removed": false
        },
        {
          "address": "0xd69b4f5faf6e3626f1e9c595a170f388798f713d",
          "topics": [
            "0x13518841ff4d3053cb7703afaa39b145c6331829b982d42f4d4fd7568b2e8e24",
            "0x0000000000000000000000001d2f0da169ceb9fc7b3144628db156f3f6c60dbe"
          ],
          "data": "0x0000000000000000000000000000000000000000000000000000000000000001",
          "blockHash": "0xd2b787516fe9ea0df1e5f0e234a0459cdde25d7380365c3ed3934bef9313b391",
          "blockNumber": "0x6ca64a0",
          "blockTimestamp": "0x6a32be23",
          "transactionHash": "0xed94a9ebcae3f0689c80d3d87f05c97b6a09405b4c5deb99576586362f45f211",
          "transactionIndex": "0x1d",
          "logIndex": "0x6d",
          "removed": false
        },
        {
          "address": "0xd69b4f5faf6e3626f1e9c595a170f388798f713d",
          "topics": [
            "0x13518841ff4d3053cb7703afaa39b145c6331829b982d42f4d4fd7568b2e8e24",
            "0x00000000000000000000000085eac5ac2f758618dfa09bdbe0cf174e7d574d5b"
          ],
          "data": "0x0000000000000000000000000000000000000000000000000000000000000001",
          "blockHash": "0xd2b787516fe9ea0df1e5f0e234a0459cdde25d7380365c3ed3934bef9313b391",
          "blockNumber": "0x6ca64a0",
          "blockTimestamp": "0x6a32be23",
          "transactionHash": "0xed94a9ebcae3f0689c80d3d87f05c97b6a09405b4c5deb99576586362f45f211",
          "transactionIndex": "0x1d",
          "logIndex": "0x6e",
          "removed": false
        },
        {
          "address": "0xd69b4f5faf6e3626f1e9c595a170f388798f713d",
          "topics": [
            "0x13518841ff4d3053cb7703afaa39b145c6331829b982d42f4d4fd7568b2e8e24",
            "0x000000000000000000000000ba2ae424d960c26247dd6c32edc70b295c744c43"
          ],
          "data": "0x0000000000000000000000000000000000000000000000000000000000000001",
          "blockHash": "0xd2b787516fe9ea0df1e5f0e234a0459cdde25d7380365c3ed3934bef9313b391",
          "blockNumber": "0x6ca64a0",
          "blockTimestamp": "0x6a32be23",
          "transactionHash": "0xed94a9ebcae3f0689c80d3d87f05c97b6a09405b4c5deb99576586362f45f211",
          "transactionIndex": "0x1d",
          "logIndex": "0x6f",
          "removed": false
        },
        {
          "address": "0xd69b4f5faf6e3626f1e9c595a170f388798f713d",
          "topics": [
            "0x13518841ff4d3053cb7703afaa39b145c6331829b982d42f4d4fd7568b2e8e24",
            "0x0000000000000000000000001ba42e5193dfa8b03d15dd1b86a3113bbbef8eeb"
          ],
          "data": "0x0000000000000000000000000000000000000000000000000000000000000001",
          "blockHash": "0xd2b787516fe9ea0df1e5f0e234a0459cdde25d7380365c3ed3934bef9313b391",
          "blockNumber": "0x6ca64a0",
          "blockTimestamp": "0x6a32be23",
          "transactionHash": "0xed94a9ebcae3f0689c80d3d87f05c97b6a09405b4c5deb99576586362f45f211",
          "transactionIndex": "0x1d",
          "logIndex": "0x70",
          "removed": false
        },
        {
          "address": "0xd69b4f5faf6e3626f1e9c595a170f388798f713d",
          "topics": [
            "0x13518841ff4d3053cb7703afaa39b145c6331829b982d42f4d4fd7568b2e8e24",
            "0x0000000000000000000000003ee2200efb3400fabb9aacf31297cbdd1d435d47"
          ],
          "data": "0x0000000000000000000000000000000000000000000000000000000000000001",
          "blockHash": "0xd2b787516fe9ea0df1e5f0e234a0459cdde25d7380365c3ed3934bef9313b391",
          "blockNumber": "0x6ca64a0",
          "blockTimestamp": "0x6a32be23",
          "transactionHash": "0xed94a9ebcae3f0689c80d3d87f05c97b6a09405b4c5deb99576586362f45f211",
          "transactionIndex": "0x1d",
          "logIndex": "0x71",
          "removed": false
        },
        {
          "address": "0xd69b4f5faf6e3626f1e9c595a170f388798f713d",
          "topics": [
            "0x13518841ff4d3053cb7703afaa39b145c6331829b982d42f4d4fd7568b2e8e24",
            "0x000000000000000000000000f8a0bf9cf54bb92f17374d9e9a321e6a111a51bd"
          ],
          "data": "0x0000000000000000000000000000000000000000000000000000000000000001",
          "blockHash": "0xd2b787516fe9ea0df1e5f0e234a0459cdde25d7380365c3ed3934bef9313b391",
          "blockNumber": "0x6ca64a0",
          "blockTimestamp": "0x6a32be23",
          "transactionHash": "0xed94a9ebcae3f0689c80d3d87f05c97b6a09405b4c5deb99576586362f45f211",
          "transactionIndex": "0x1d",
          "logIndex": "0x72",
          "removed": false
        },
        {
          "address": "0xd69b4f5faf6e3626f1e9c595a170f388798f713d",
          "topics": [
            "0x13518841ff4d3053cb7703afaa39b145c6331829b982d42f4d4fd7568b2e8e24",
            "0x0000000000000000000000008ff795a6f4d97e7887c79bea79aba5cc76444adf"
          ],
          "data": "0x0000000000000000000000000000000000000000000000000000000000000001",
          "blockHash": "0xd2b787516fe9ea0df1e5f0e234a0459cdde25d7380365c3ed3934bef9313b391",
          "blockNumber": "0x6ca64a0",
          "blockTimestamp": "0x6a32be23",
          "transactionHash": "0xed94a9ebcae3f0689c80d3d87f05c97b6a09405b4c5deb99576586362f45f211",
          "transactionIndex": "0x1d",
          "logIndex": "0x73",
          "removed": false
        },
        {
          "address": "0xd69b4f5faf6e3626f1e9c595a170f388798f713d",
          "topics": [
            "0x13518841ff4d3053cb7703afaa39b145c6331829b982d42f4d4fd7568b2e8e24",
            "0x0000000000000000000000001af3f329e8be154074d8769d1ffa4ee058b1dbc3"
          ],
          "data": "0x0000000000000000000000000000000000000000000000000000000000000001",
          "blockHash": "0xd2b787516fe9ea0df1e5f0e234a0459cdde25d7380365c3ed3934bef9313b391",
          "blockNumber": "0x6ca64a0",
          "blockTimestamp": "0x6a32be23",
          "transactionHash": "0xed94a9ebcae3f0689c80d3d87f05c97b6a09405b4c5deb99576586362f45f211",
          "transactionIndex": "0x1d",
          "logIndex": "0x74",
          "removed": false
        },
        {
          "address": "0xd69b4f5faf6e3626f1e9c595a170f388798f713d",
          "topics": [
            "0x13518841ff4d3053cb7703afaa39b145c6331829b982d42f4d4fd7568b2e8e24",
            "0x00000000000000000000000076a797a59ba2c17726896976b7b3747bfd1d220f"
          ],
          "data": "0x0000000000000000000000000000000000000000000000000000000000000001",
          "blockHash": "0xd2b787516fe9ea0df1e5f0e234a0459cdde25d7380365c3ed3934bef9313b391",
          "blockNumber": "0x6ca64a0",
          "blockTimestamp": "0x6a32be23",
          "transactionHash": "0xed94a9ebcae3f0689c80d3d87f05c97b6a09405b4c5deb99576586362f45f211",
          "transactionIndex": "0x1d",
          "logIndex": "0x75",
          "removed": false
        },
        {
          "address": "0xd69b4f5faf6e3626f1e9c595a170f388798f713d",
          "topics": [
            "0x13518841ff4d3053cb7703afaa39b145c6331829b982d42f4d4fd7568b2e8e24",
            "0x0000000000000000000000008d0d000ee44948fc98c9b98a4fa4921476f08b0d"
          ],
          "data": "0x0000000000000000000000000000000000000000000000000000000000000001",
          "blockHash": "0xd2b787516fe9ea0df1e5f0e234a0459cdde25d7380365c3ed3934bef9313b391",
          "blockNumber": "0x6ca64a0",
          "blockTimestamp": "0x6a32be23",
          "transactionHash": "0xed94a9ebcae3f0689c80d3d87f05c97b6a09405b4c5deb99576586362f45f211",
          "transactionIndex": "0x1d",
          "logIndex": "0x76",
          "removed": false
        },
        {
          "address": "0xd69b4f5faf6e3626f1e9c595a170f388798f713d",
          "topics": [
            "0x13518841ff4d3053cb7703afaa39b145c6331829b982d42f4d4fd7568b2e8e24",
            "0x0000000000000000000000005d3a1ff2b6bab83b63cd9ad0787074081a52ef34"
          ],
          "data": "0x0000000000000000000000000000000000000000000000000000000000000001",
          "blockHash": "0xd2b787516fe9ea0df1e5f0e234a0459cdde25d7380365c3ed3934bef9313b391",
          "blockNumber": "0x6ca64a0",
          "blockTimestamp": "0x6a32be23",
          "transactionHash": "0xed94a9ebcae3f0689c80d3d87f05c97b6a09405b4c5deb99576586362f45f211",
          "transactionIndex": "0x1d",
          "logIndex": "0x77",
          "removed": false
        },
        {
          "address": "0xd69b4f5faf6e3626f1e9c595a170f388798f713d",
          "topics": [
            "0x13518841ff4d3053cb7703afaa39b145c6331829b982d42f4d4fd7568b2e8e24",
            "0x00000000000000000000000022b1458e780f8fa71e2f84502cee8b5a3cc731fa"
          ],
          "data": "0x0000000000000000000000000000000000000000000000000000000000000001",
          "blockHash": "0xd2b787516fe9ea0df1e5f0e234a0459cdde25d7380365c3ed3934bef9313b391",
          "blockNumber": "0x6ca64a0",
          "blockTimestamp": "0x6a32be23",
          "transactionHash": "0xed94a9ebcae3f0689c80d3d87f05c97b6a09405b4c5deb99576586362f45f211",
          "transactionIndex": "0x1d",
          "logIndex": "0x78",
          "removed": false
        },
        {
          "address": "0xd69b4f5faf6e3626f1e9c595a170f388798f713d",
          "topics": [
            "0x13518841ff4d3053cb7703afaa39b145c6331829b982d42f4d4fd7568b2e8e24",
            "0x0000000000000000000000004338665cbb7b2485a8855a139b75d5e34ab0db94"
          ],
          "data": "0x0000000000000000000000000000000000000000000000000000000000000001",
          "blockHash": "0xd2b787516fe9ea0df1e5f0e234a0459cdde25d7380365c3ed3934bef9313b391",
          "blockNumber": "0x6ca64a0",
          "blockTimestamp": "0x6a32be23",
          "transactionHash": "0xed94a9ebcae3f0689c80d3d87f05c97b6a09405b4c5deb99576586362f45f211",
          "transactionIndex": "0x1d",
          "logIndex": "0x79",
          "removed": false
        },
        {
          "address": "0xd69b4f5faf6e3626f1e9c595a170f388798f713d",
          "topics": [
            "0x13518841ff4d3053cb7703afaa39b145c6331829b982d42f4d4fd7568b2e8e24",
            "0x0000000000000000000000001ce0c2827e2ef14d5c4f29a091d735a204794041"
          ],
          "data": "0x0000000000000000000000000000000000000000000000000000000000000001",
          "blockHash": "0xd2b787516fe9ea0df1e5f0e234a0459cdde25d7380365c3ed3934bef9313b391",
          "blockNumber": "0x6ca64a0",
          "blockTimestamp": "0x6a32be23",
          "transactionHash": "0xed94a9ebcae3f0689c80d3d87f05c97b6a09405b4c5deb99576586362f45f211",
          "transactionIndex": "0x1d",
          "logIndex": "0x7a",
          "removed": false
        },
        {
          "address": "0xd69b4f5faf6e3626f1e9c595a170f388798f713d",
          "topics": [
            "0x13518841ff4d3053cb7703afaa39b145c6331829b982d42f4d4fd7568b2e8e24",
            "0x0000000000000000000000002859e4544c4bb03966803b044a93563bd2d0dd4d"
          ],
          "data": "0x0000000000000000000000000000000000000000000000000000000000000001",
          "blockHash": "0xd2b787516fe9ea0df1e5f0e234a0459cdde25d7380365c3ed3934bef9313b391",
          "blockNumber": "0x6ca64a0",
          "blockTimestamp": "0x6a32be23",
          "transactionHash": "0xed94a9ebcae3f0689c80d3d87f05c97b6a09405b4c5deb99576586362f45f211",
          "transactionIndex": "0x1d",
          "logIndex": "0x7b",
          "removed": false
        },
        {
          "address": "0xd69b4f5faf6e3626f1e9c595a170f388798f713d",
          "topics": [
            "0x13518841ff4d3053cb7703afaa39b145c6331829b982d42f4d4fd7568b2e8e24",
            "0x00000000000000000000000021caef8a43163eea865baee23b9c2e327696a3bf"
          ],
          "data": "0x0000000000000000000000000000000000000000000000000000000000000001",
          "blockHash": "0xd2b787516fe9ea0df1e5f0e234a0459cdde25d7380365c3ed3934bef9313b391",
          "blockNumber": "0x6ca64a0",
          "blockTimestamp": "0x6a32be23",
          "transactionHash": "0xed94a9ebcae3f0689c80d3d87f05c97b6a09405b4c5deb99576586362f45f211",
          "transactionIndex": "0x1d",
          "logIndex": "0x7c",
          "removed": false
        },
        {
          "address": "0xd69b4f5faf6e3626f1e9c595a170f388798f713d",
          "topics": [
            "0x13518841ff4d3053cb7703afaa39b145c6331829b982d42f4d4fd7568b2e8e24",
            "0x00000000000000000000000044f161ae29361e332dea039dfa2f404e0bc5b5cc"
          ],
          "data": "0x0000000000000000000000000000000000000000000000000000000000000001",
          "blockHash": "0xd2b787516fe9ea0df1e5f0e234a0459cdde25d7380365c3ed3934bef9313b391",
          "blockNumber": "0x6ca64a0",
          "blockTimestamp": "0x6a32be23",
          "transactionHash": "0xed94a9ebcae3f0689c80d3d87f05c97b6a09405b4c5deb99576586362f45f211",
          "transactionIndex": "0x1d",
          "logIndex": "0x7d",
          "removed": false
        },
        {
          "address": "0xd69b4f5faf6e3626f1e9c595a170f388798f713d",
          "topics": [
            "0x13518841ff4d3053cb7703afaa39b145c6331829b982d42f4d4fd7568b2e8e24",
            "0x0000000000000000000000007083609fce4d1d8dc0c979aab8c869ea2c873402"
          ],
          "data": "0x0000000000000000000000000000000000000000000000000000000000000001",
          "blockHash": "0xd2b787516fe9ea0df1e5f0e234a0459cdde25d7380365c3ed3934bef9313b391",
          "blockNumber": "0x6ca64a0",
          "blockTimestamp": "0x6a32be23",
          "transactionHash": "0xed94a9ebcae3f0689c80d3d87f05c97b6a09405b4c5deb99576586362f45f211",
          "transactionIndex": "0x1d",
          "logIndex": "0x7e",
          "removed": false
        },
        {
          "address": "0xd69b4f5faf6e3626f1e9c595a170f388798f713d",
          "topics": [
            "0x13518841ff4d3053cb7703afaa39b145c6331829b982d42f4d4fd7568b2e8e24",
            "0x000000000000000000000000bf5140a22578168fd562dccf235e5d43a02ce9b1"
          ],
          "data": "0x0000000000000000000000000000000000000000000000000000000000000001",
          "blockHash": "0xd2b787516fe9ea0df1e5f0e234a0459cdde25d7380365c3ed3934bef9313b391",
          "blockNumber": "0x6ca64a0",
          "blockTimestamp": "0x6a32be23",
          "transactionHash": "0xed94a9ebcae3f0689c80d3d87f05c97b6a09405b4c5deb99576586362f45f211",
          "transactionIndex": "0x1d",
          "logIndex": "0x7f",
          "removed": false
        },
        {
          "address": "0xd69b4f5faf6e3626f1e9c595a170f388798f713d",
          "topics": [
            "0x13518841ff4d3053cb7703afaa39b145c6331829b982d42f4d4fd7568b2e8e24",
            "0x000000000000000000000000000ae314e2a2172a039b26378814c252734f556a"
          ],
          "data": "0x0000000000000000000000000000000000000000000000000000000000000001",
          "blockHash": "0xd2b787516fe9ea0df1e5f0e234a0459cdde25d7380365c3ed3934bef9313b391",
          "blockNumber": "0x6ca64a0",
          "blockTimestamp": "0x6a32be23",
          "transactionHash": "0xed94a9ebcae3f0689c80d3d87f05c97b6a09405b4c5deb99576586362f45f211",
          "transactionIndex": "0x1d",
          "logIndex": "0x80",
          "removed": false
        },
        {
          "address": "0xd69b4f5faf6e3626f1e9c595a170f388798f713d",
          "topics": [
            "0x13518841ff4d3053cb7703afaa39b145c6331829b982d42f4d4fd7568b2e8e24",
            "0x000000000000000000000000039cb485212f996a9dbb85a9a75d898f94d38da6"
          ],
          "data": "0x0000000000000000000000000000000000000000000000000000000000000001",
          "blockHash": "0xd2b787516fe9ea0df1e5f0e234a0459cdde25d7380365c3ed3934bef9313b391",
          "blockNumber": "0x6ca64a0",
          "blockTimestamp": "0x6a32be23",
          "transactionHash": "0xed94a9ebcae3f0689c80d3d87f05c97b6a09405b4c5deb99576586362f45f211",
          "transactionIndex": "0x1d",
          "logIndex": "0x81",
          "removed": false
        },
        {
          "address": "0xd69b4f5faf6e3626f1e9c595a170f388798f713d",
          "topics": [
            "0x13518841ff4d3053cb7703afaa39b145c6331829b982d42f4d4fd7568b2e8e24",
            "0x000000000000000000000000392004bee213f1ff580c867359c246924f21e6ad"
          ],
          "data": "0x0000000000000000000000000000000000000000000000000000000000000001",
          "blockHash": "0xd2b787516fe9ea0df1e5f0e234a0459cdde25d7380365c3ed3934bef9313b391",
          "blockNumber": "0x6ca64a0",
          "blockTimestamp": "0x6a32be23",
          "transactionHash": "0xed94a9ebcae3f0689c80d3d87f05c97b6a09405b4c5deb99576586362f45f211",
          "transactionIndex": "0x1d",
          "logIndex": "0x82",
          "removed": false
        },
        {
          "address": "0xd69b4f5faf6e3626f1e9c595a170f388798f713d",
          "topics": [
            "0x13518841ff4d3053cb7703afaa39b145c6331829b982d42f4d4fd7568b2e8e24",
            "0x00000000000000000000000000000000000000000000000000000000000010e0"
          ],
          "data": "0x0000000000000000000000000000000000000000000000000000000000000001",
          "blockHash": "0xd2b787516fe9ea0df1e5f0e234a0459cdde25d7380365c3ed3934bef9313b391",
          "blockNumber": "0x6ca64a0",
          "blockTimestamp": "0x6a32be23",
          "transactionHash": "0xed94a9ebcae3f0689c80d3d87f05c97b6a09405b4c5deb99576586362f45f211",
          "transactionIndex": "0x1d",
          "logIndex": "0x83",
          "removed": false
        },
        {
          "address": "0xd69b4f5faf6e3626f1e9c595a170f388798f713d",
          "topics": [
            "0x13518841ff4d3053cb7703afaa39b145c6331829b982d42f4d4fd7568b2e8e24",
            "0x000000000000000000000000fb6115445bff7b52feb98650c87f44907e58f802"
          ],
          "data": "0x0000000000000000000000000000000000000000000000000000000000000001",
          "blockHash": "0xd2b787516fe9ea0df1e5f0e234a0459cdde25d7380365c3ed3934bef9313b391",
          "blockNumber": "0x6ca64a0",
          "blockTimestamp": "0x6a32be23",
          "transactionHash": "0xed94a9ebcae3f0689c80d3d87f05c97b6a09405b4c5deb99576586362f45f211",
          "transactionIndex": "0x1d",
          "logIndex": "0x84",
          "removed": false
        },
        {
          "address": "0xd69b4f5faf6e3626f1e9c595a170f388798f713d",
          "topics": [
            "0x13518841ff4d3053cb7703afaa39b145c6331829b982d42f4d4fd7568b2e8e24",
            "0x0000000000000000000000000eb3a705fc54725037cc9e008bdede697f62f335"
          ],
          "data": "0x0000000000000000000000000000000000000000000000000000000000000001",
          "blockHash": "0xd2b787516fe9ea0df1e5f0e234a0459cdde25d7380365c3ed3934bef9313b391",
          "blockNumber": "0x6ca64a0",
          "blockTimestamp": "0x6a32be23",
          "transactionHash": "0xed94a9ebcae3f0689c80d3d87f05c97b6a09405b4c5deb99576586362f45f211",
          "transactionIndex": "0x1d",
          "logIndex": "0x85",
          "removed": false
        },
        {
          "address": "0xd69b4f5faf6e3626f1e9c595a170f388798f713d",
          "topics": [
            "0x13518841ff4d3053cb7703afaa39b145c6331829b982d42f4d4fd7568b2e8e24",
            "0x000000000000000000000000ba5ed44733953d79717f6269357c77718c8ba5ed"
          ],
          "data": "0x0000000000000000000000000000000000000000000000000000000000000001",
          "blockHash": "0xd2b787516fe9ea0df1e5f0e234a0459cdde25d7380365c3ed3934bef9313b391",
          "blockNumber": "0x6ca64a0",
          "blockTimestamp": "0x6a32be23",
          "transactionHash": "0xed94a9ebcae3f0689c80d3d87f05c97b6a09405b4c5deb99576586362f45f211",
          "transactionIndex": "0x1d",
          "logIndex": "0x86",
          "removed": false
        },
        {
          "address": "0xd69b4f5faf6e3626f1e9c595a170f388798f713d",
          "topics": [
            "0x13518841ff4d3053cb7703afaa39b145c6331829b982d42f4d4fd7568b2e8e24",
            "0x000000000000000000000000011ebe7d75e2c9d1e0bd0be0bef5c36f0a90075f"
          ],
          "data": "0x0000000000000000000000000000000000000000000000000000000000000001",
          "blockHash": "0xd2b787516fe9ea0df1e5f0e234a0459cdde25d7380365c3ed3934bef9313b391",
          "blockNumber": "0x6ca64a0",
          "blockTimestamp": "0x6a32be23",
          "transactionHash": "0xed94a9ebcae3f0689c80d3d87f05c97b6a09405b4c5deb99576586362f45f211",
          "transactionIndex": "0x1d",
          "logIndex": "0x87",
          "removed": false
        }
      ],
      "logsBloom": "0x0000081401000020000000f000000000000000000010000010000000040800000000000001000000000020400000020000100020000004000000200000900000000000080000844000000200420000000000000002002002000002100002002000001000001000800008010012000200000808000400800000000000000000008100000001000000010a08000400000000000000004210080200404024001008400200000000000000000000000006000001000000000040000000000000000000000000020800000010000000000040000100000080000000000080001000000000000110000000040206040000000000410080004000080000000000000000",
      "type": "0x0",
      "transactionHash": "0xed94a9ebcae3f0689c80d3d87f05c97b6a09405b4c5deb99576586362f45f211",
      "transactionIndex": "0x1d",
      "blockHash": "0xd2b787516fe9ea0df1e5f0e234a0459cdde25d7380365c3ed3934bef9313b391",
      "blockNumber": "0x6ca64a0",
      "gasUsed": "0xbfe94",
      "effectiveGasPrice": "0x5f5e100",
      "from": "0x3660362beb3a95ce16d981e7d30e1e025e741393",
      "to": "0xd69b4f5faf6e3626f1e9c595a170f388798f713d",
      "contractAddress": null
    },
    {
      "status": "0x1",
      "cumulativeGasUsed": "0x869710",
      "logs": [
        {
          "address": "0xd69b4f5faf6e3626f1e9c595a170f388798f713d",
          "topics": [
            "0x13518841ff4d3053cb7703afaa39b145c6331829b982d42f4d4fd7568b2e8e24",
            "0x0000000000000000000000000d8ce2a99bb6e3b7db580ed848240e4a0f9ae153"
          ],
          "data": "0x0000000000000000000000000000000000000000000000000000000000000001",
          "blockHash": "0xd2b787516fe9ea0df1e5f0e234a0459cdde25d7380365c3ed3934bef9313b391",
          "blockNumber": "0x6ca64a0",
          "blockTimestamp": "0x6a32be23",
          "transactionHash": "0x210da2439d27d2fb2cbbabf30a6466b92b54984cfd2f899d054c9c3581aa35fb",
          "transactionIndex": "0x1e",
          "logIndex": "0x88",
          "removed": false
        },
        {
          "address": "0xd69b4f5faf6e3626f1e9c595a170f388798f713d",
          "topics": [
            "0x13518841ff4d3053cb7703afaa39b145c6331829b982d42f4d4fd7568b2e8e24",
            "0x000000000000000000000000a2b726b1145a4773f68593cf171187d8ebe4d495"
          ],
          "data": "0x0000000000000000000000000000000000000000000000000000000000000001",
          "blockHash": "0xd2b787516fe9ea0df1e5f0e234a0459cdde25d7380365c3ed3934bef9313b391",
          "blockNumber": "0x6ca64a0",
          "blockTimestamp": "0x6a32be23",
          "transactionHash": "0x210da2439d27d2fb2cbbabf30a6466b92b54984cfd2f899d054c9c3581aa35fb",
          "transactionIndex": "0x1e",
          "logIndex": "0x89",
          "removed": false
        },
        {
          "address": "0xd69b4f5faf6e3626f1e9c595a170f388798f713d",
          "topics": [
            "0x13518841ff4d3053cb7703afaa39b145c6331829b982d42f4d4fd7568b2e8e24",
            "0x000000000000000000000000924fa68a0fc644485b8df8abfa0a41c2e7744444"
          ],
          "data": "0x0000000000000000000000000000000000000000000000000000000000000001",
          "blockHash": "0xd2b787516fe9ea0df1e5f0e234a0459cdde25d7380365c3ed3934bef9313b391",
          "blockNumber": "0x6ca64a0",
          "blockTimestamp": "0x6a32be23",
          "transactionHash": "0x210da2439d27d2fb2cbbabf30a6466b92b54984cfd2f899d054c9c3581aa35fb",
          "transactionIndex": "0x1e",
          "logIndex": "0x8a",
          "removed": false
        },
        {
          "address": "0xd69b4f5faf6e3626f1e9c595a170f388798f713d",
          "topics": [
            "0x13518841ff4d3053cb7703afaa39b145c6331829b982d42f4d4fd7568b2e8e24",
            "0x000000000000000000000000fe930c2d63aed9b82fc4dbc801920dd2c1a3224f"
          ],
          "data": "0x0000000000000000000000000000000000000000000000000000000000000001",
          "blockHash": "0xd2b787516fe9ea0df1e5f0e234a0459cdde25d7380365c3ed3934bef9313b391",
          "blockNumber": "0x6ca64a0",
          "blockTimestamp": "0x6a32be23",
          "transactionHash": "0x210da2439d27d2fb2cbbabf30a6466b92b54984cfd2f899d054c9c3581aa35fb",
          "transactionIndex": "0x1e",
          "logIndex": "0x8b",
          "removed": false
        },
        {
          "address": "0xd69b4f5faf6e3626f1e9c595a170f388798f713d",
          "topics": [
            "0x13518841ff4d3053cb7703afaa39b145c6331829b982d42f4d4fd7568b2e8e24",
            "0x000000000000000000000000031b41e504677879370e9dbcf937283a8691fa7f"
          ],
          "data": "0x0000000000000000000000000000000000000000000000000000000000000001",
          "blockHash": "0xd2b787516fe9ea0df1e5f0e234a0459cdde25d7380365c3ed3934bef9313b391",
          "blockNumber": "0x6ca64a0",
          "blockTimestamp": "0x6a32be23",
          "transactionHash": "0x210da2439d27d2fb2cbbabf30a6466b92b54984cfd2f899d054c9c3581aa35fb",
          "transactionIndex": "0x1e",
          "logIndex": "0x8c",
          "removed": false
        },
        {
          "address": "0xd69b4f5faf6e3626f1e9c595a170f388798f713d",
          "topics": [
            "0x13518841ff4d3053cb7703afaa39b145c6331829b982d42f4d4fd7568b2e8e24",
            "0x00000000000000000000000040af3827f39d0eacbf4a168f8d4ee67c121d11c9"
          ],
          "data": "0x0000000000000000000000000000000000000000000000000000000000000001",
          "blockHash": "0xd2b787516fe9ea0df1e5f0e234a0459cdde25d7380365c3ed3934bef9313b391",
          "blockNumber": "0x6ca64a0",
          "blockTimestamp": "0x6a32be23",
          "transactionHash": "0x210da2439d27d2fb2cbbabf30a6466b92b54984cfd2f899d054c9c3581aa35fb",
          "transactionIndex": "0x1e",
          "logIndex": "0x8d",
          "removed": false
        },
        {
          "address": "0xd69b4f5faf6e3626f1e9c595a170f388798f713d",
          "topics": [
            "0x13518841ff4d3053cb7703afaa39b145c6331829b982d42f4d4fd7568b2e8e24",
            "0x000000000000000000000000a697e272a73744b343528c3bc4702f2565b2f422"
          ],
          "data": "0x0000000000000000000000000000000000000000000000000000000000000001",
          "blockHash": "0xd2b787516fe9ea0df1e5f0e234a0459cdde25d7380365c3ed3934bef9313b391",
          "blockNumber": "0x6ca64a0",
          "blockTimestamp": "0x6a32be23",
          "transactionHash": "0x210da2439d27d2fb2cbbabf30a6466b92b54984cfd2f899d054c9c3581aa35fb",
          "transactionIndex": "0x1e",
          "logIndex": "0x8e",
          "removed": false
        },
        {
          "address": "0xd69b4f5faf6e3626f1e9c595a170f388798f713d",
          "topics": [
            "0x13518841ff4d3053cb7703afaa39b145c6331829b982d42f4d4fd7568b2e8e24",
            "0x0000000000000000000000006418c0dd099a9fda397c766304cdd918233e8847"
          ],
          "data": "0x0000000000000000000000000000000000000000000000000000000000000001",
          "blockHash": "0xd2b787516fe9ea0df1e5f0e234a0459cdde25d7380365c3ed3934bef9313b391",
          "blockNumber": "0x6ca64a0",
          "blockTimestamp": "0x6a32be23",
          "transactionHash": "0x210da2439d27d2fb2cbbabf30a6466b92b54984cfd2f899d054c9c3581aa35fb",
          "transactionIndex": "0x1e",
          "logIndex": "0x8f",
          "removed": false
        },
        {
          "address": "0xd69b4f5faf6e3626f1e9c595a170f388798f713d",
          "topics": [
            "0x13518841ff4d3053cb7703afaa39b145c6331829b982d42f4d4fd7568b2e8e24",
            "0x0000000000000000000000000e09fabb73bd3ade0a17ecc321fd13a19e81ce82"
          ],
          "data": "0x0000000000000000000000000000000000000000000000000000000000000001",
          "blockHash": "0xd2b787516fe9ea0df1e5f0e234a0459cdde25d7380365c3ed3934bef9313b391",
          "blockNumber": "0x6ca64a0",
          "blockTimestamp": "0x6a32be23",
          "transactionHash": "0x210da2439d27d2fb2cbbabf30a6466b92b54984cfd2f899d054c9c3581aa35fb",
          "transactionIndex": "0x1e",
          "logIndex": "0x90",
          "removed": false
        },
        {
          "address": "0xd69b4f5faf6e3626f1e9c595a170f388798f713d",
          "topics": [
            "0x13518841ff4d3053cb7703afaa39b145c6331829b982d42f4d4fd7568b2e8e24",
            "0x000000000000000000000000997a58129890bbda032231a52ed1ddc845fc18e1"
          ],
          "data": "0x0000000000000000000000000000000000000000000000000000000000000001",
          "blockHash": "0xd2b787516fe9ea0df1e5f0e234a0459cdde25d7380365c3ed3934bef9313b391",
          "blockNumber": "0x6ca64a0",
          "blockTimestamp": "0x6a32be23",
          "transactionHash": "0x210da2439d27d2fb2cbbabf30a6466b92b54984cfd2f899d054c9c3581aa35fb",
          "transactionIndex": "0x1e",
          "logIndex": "0x91",
          "removed": false
        },
        {
          "address": "0xd69b4f5faf6e3626f1e9c595a170f388798f713d",
          "topics": [
            "0x13518841ff4d3053cb7703afaa39b145c6331829b982d42f4d4fd7568b2e8e24",
            "0x000000000000000000000000156ab3346823b651294766e23e6cf87254d68962"
          ],
          "data": "0x0000000000000000000000000000000000000000000000000000000000000001",
          "blockHash": "0xd2b787516fe9ea0df1e5f0e234a0459cdde25d7380365c3ed3934bef9313b391",
          "blockNumber": "0x6ca64a0",
          "blockTimestamp": "0x6a32be23",
          "transactionHash": "0x210da2439d27d2fb2cbbabf30a6466b92b54984cfd2f899d054c9c3581aa35fb",
          "transactionIndex": "0x1e",
          "logIndex": "0x92",
          "removed": false
        },
        {
          "address": "0xd69b4f5faf6e3626f1e9c595a170f388798f713d",
          "topics": [
            "0x13518841ff4d3053cb7703afaa39b145c6331829b982d42f4d4fd7568b2e8e24",
            "0x0000000000000000000000006985884c4392d348587b19cb9eaaf157f13271cd"
          ],
          "data": "0x0000000000000000000000000000000000000000000000000000000000000001",
          "blockHash": "0xd2b787516fe9ea0df1e5f0e234a0459cdde25d7380365c3ed3934bef9313b391",
          "blockNumber": "0x6ca64a0",
          "blockTimestamp": "0x6a32be23",
          "transactionHash": "0x210da2439d27d2fb2cbbabf30a6466b92b54984cfd2f899d054c9c3581aa35fb",
          "transactionIndex": "0x1e",
          "logIndex": "0x93",
          "removed": false
        },
        {
          "address": "0xd69b4f5faf6e3626f1e9c595a170f388798f713d",
          "topics": [
            "0x13518841ff4d3053cb7703afaa39b145c6331829b982d42f4d4fd7568b2e8e24",
            "0x000000000000000000000000904567252d8f48555b7447c67dca23f0372e16be"
          ],
          "data": "0x0000000000000000000000000000000000000000000000000000000000000001",
          "blockHash": "0xd2b787516fe9ea0df1e5f0e234a0459cdde25d7380365c3ed3934bef9313b391",
          "blockNumber": "0x6ca64a0",
          "blockTimestamp": "0x6a32be23",
          "transactionHash": "0x210da2439d27d2fb2cbbabf30a6466b92b54984cfd2f899d054c9c3581aa35fb",
          "transactionIndex": "0x1e",
          "logIndex": "0x94",
          "removed": false
        },
        {
          "address": "0xd69b4f5faf6e3626f1e9c595a170f388798f713d",
          "topics": [
            "0x13518841ff4d3053cb7703afaa39b145c6331829b982d42f4d4fd7568b2e8e24",
            "0x000000000000000000000000c5f0f7b66764f6ec8c8dff7ba683102295e16409"
          ],
          "data": "0x0000000000000000000000000000000000000000000000000000000000000001",
          "blockHash": "0xd2b787516fe9ea0df1e5f0e234a0459cdde25d7380365c3ed3934bef9313b391",
          "blockNumber": "0x6ca64a0",
          "blockTimestamp": "0x6a32be23",
          "transactionHash": "0x210da2439d27d2fb2cbbabf30a6466b92b54984cfd2f899d054c9c3581aa35fb",
          "transactionIndex": "0x1e",
          "logIndex": "0x95",
          "removed": false
        },
        {
          "address": "0xd69b4f5faf6e3626f1e9c595a170f388798f713d",
          "topics": [
            "0x13518841ff4d3053cb7703afaa39b145c6331829b982d42f4d4fd7568b2e8e24",
            "0x000000000000000000000000cf3232b85b43bca90e51d38cc06cc8bb8c8a3e36"
          ],
          "data": "0x0000000000000000000000000000000000000000000000000000000000000001",
          "blockHash": "0xd2b787516fe9ea0df1e5f0e234a0459cdde25d7380365c3ed3934bef9313b391",
          "blockNumber": "0x6ca64a0",
          "blockTimestamp": "0x6a32be23",
          "transactionHash": "0x210da2439d27d2fb2cbbabf30a6466b92b54984cfd2f899d054c9c3581aa35fb",
          "transactionIndex": "0x1e",
          "logIndex": "0x96",
          "removed": false
        },
        {
          "address": "0xd69b4f5faf6e3626f1e9c595a170f388798f713d",
          "topics": [
            "0x13518841ff4d3053cb7703afaa39b145c6331829b982d42f4d4fd7568b2e8e24",
            "0x0000000000000000000000000e63b9c287e32a05e6b9ab8ee8df88a2760225a9"
          ],
          "data": "0x0000000000000000000000000000000000000000000000000000000000000001",
          "blockHash": "0xd2b787516fe9ea0df1e5f0e234a0459cdde25d7380365c3ed3934bef9313b391",
          "blockNumber": "0x6ca64a0",
          "blockTimestamp": "0x6a32be23",
          "transactionHash": "0x210da2439d27d2fb2cbbabf30a6466b92b54984cfd2f899d054c9c3581aa35fb",
          "transactionIndex": "0x1e",
          "logIndex": "0x97",
          "removed": false
        },
        {
          "address": "0xd69b4f5faf6e3626f1e9c595a170f388798f713d",
          "topics": [
            "0x13518841ff4d3053cb7703afaa39b145c6331829b982d42f4d4fd7568b2e8e24",
            "0x000000000000000000000000352cb5e19b12fc216548a2677bd0fce83bae434b"
          ],
          "data": "0x0000000000000000000000000000000000000000000000000000000000000001",
          "blockHash": "0xd2b787516fe9ea0df1e5f0e234a0459cdde25d7380365c3ed3934bef9313b391",
          "blockNumber": "0x6ca64a0",
          "blockTimestamp": "0x6a32be23",
          "transactionHash": "0x210da2439d27d2fb2cbbabf30a6466b92b54984cfd2f899d054c9c3581aa35fb",
          "transactionIndex": "0x1e",
          "logIndex": "0x98",
          "removed": false
        },
        {
          "address": "0xd69b4f5faf6e3626f1e9c595a170f388798f713d",
          "topics": [
            "0x13518841ff4d3053cb7703afaa39b145c6331829b982d42f4d4fd7568b2e8e24",
            "0x00000000000000000000000020ee7b720f4e4c4ffcb00c4065cdae55271aecca"
          ],
          "data": "0x0000000000000000000000000000000000000000000000000000000000000001",
          "blockHash": "0xd2b787516fe9ea0df1e5f0e234a0459cdde25d7380365c3ed3934bef9313b391",
          "blockNumber": "0x6ca64a0",
          "blockTimestamp": "0x6a32be23",
          "transactionHash": "0x210da2439d27d2fb2cbbabf30a6466b92b54984cfd2f899d054c9c3581aa35fb",
          "transactionIndex": "0x1e",
          "logIndex": "0x99",
          "removed": false
        },
        {
          "address": "0xd69b4f5faf6e3626f1e9c595a170f388798f713d",
          "topics": [
            "0x13518841ff4d3053cb7703afaa39b145c6331829b982d42f4d4fd7568b2e8e24",
            "0x00000000000000000000000070f2eadf1ca1969ff42b0c78e9da519e8937cbaf"
          ],
          "data": "0x0000000000000000000000000000000000000000000000000000000000000001",
          "blockHash": "0xd2b787516fe9ea0df1e5f0e234a0459cdde25d7380365c3ed3934bef9313b391",
          "blockNumber": "0x6ca64a0",
          "blockTimestamp": "0x6a32be23",
          "transactionHash": "0x210da2439d27d2fb2cbbabf30a6466b92b54984cfd2f899d054c9c3581aa35fb",
          "transactionIndex": "0x1e",
          "logIndex": "0x9a",
          "removed": false
        },
        {
          "address": "0xd69b4f5faf6e3626f1e9c595a170f388798f713d",
          "topics": [
            "0x13518841ff4d3053cb7703afaa39b145c6331829b982d42f4d4fd7568b2e8e24",
            "0x000000000000000000000000fb5b838b6cfeedc2873ab27866079ac55363d37e"
          ],
          "data": "0x0000000000000000000000000000000000000000000000000000000000000001",
          "blockHash": "0xd2b787516fe9ea0df1e5f0e234a0459cdde25d7380365c3ed3934bef9313b391",
          "blockNumber": "0x6ca64a0",
          "blockTimestamp": "0x6a32be23",
          "transactionHash": "0x210da2439d27d2fb2cbbabf30a6466b92b54984cfd2f899d054c9c3581aa35fb",
          "transactionIndex": "0x1e",
          "logIndex": "0x9b",
          "removed": false
        },
        {
          "address": "0xd69b4f5faf6e3626f1e9c595a170f388798f713d",
          "topics": [
            "0x13518841ff4d3053cb7703afaa39b145c6331829b982d42f4d4fd7568b2e8e24",
            "0x000000000000000000000000986854779804799c1d68867f5e03e601e781e41b"
          ],
          "data": "0x0000000000000000000000000000000000000000000000000000000000000001",
          "blockHash": "0xd2b787516fe9ea0df1e5f0e234a0459cdde25d7380365c3ed3934bef9313b391",
          "blockNumber": "0x6ca64a0",
          "blockTimestamp": "0x6a32be23",
          "transactionHash": "0x210da2439d27d2fb2cbbabf30a6466b92b54984cfd2f899d054c9c3581aa35fb",
          "transactionIndex": "0x1e",
          "logIndex": "0x9c",
          "removed": false
        },
        {
          "address": "0xd69b4f5faf6e3626f1e9c595a170f388798f713d",
          "topics": [
            "0x13518841ff4d3053cb7703afaa39b145c6331829b982d42f4d4fd7568b2e8e24",
            "0x0000000000000000000000006bdcce4a559076e37755a78ce0c06214e59e4444"
          ],
          "data": "0x0000000000000000000000000000000000000000000000000000000000000001",
          "blockHash": "0xd2b787516fe9ea0df1e5f0e234a0459cdde25d7380365c3ed3934bef9313b391",
          "blockNumber": "0x6ca64a0",
          "blockTimestamp": "0x6a32be23",
          "transactionHash": "0x210da2439d27d2fb2cbbabf30a6466b92b54984cfd2f899d054c9c3581aa35fb",
          "transactionIndex": "0x1e",
          "logIndex": "0x9d",
          "removed": false
        },
        {
          "address": "0xd69b4f5faf6e3626f1e9c595a170f388798f713d",
          "topics": [
            "0x13518841ff4d3053cb7703afaa39b145c6331829b982d42f4d4fd7568b2e8e24",
            "0x000000000000000000000000ac23b90a79504865d52b49b327328411a23d4db2"
          ],
          "data": "0x0000000000000000000000000000000000000000000000000000000000000001",
          "blockHash": "0xd2b787516fe9ea0df1e5f0e234a0459cdde25d7380365c3ed3934bef9313b391",
          "blockNumber": "0x6ca64a0",
          "blockTimestamp": "0x6a32be23",
          "transactionHash": "0x210da2439d27d2fb2cbbabf30a6466b92b54984cfd2f899d054c9c3581aa35fb",
          "transactionIndex": "0x1e",
          "logIndex": "0x9e",
          "removed": false
        },
        {
          "address": "0xd69b4f5faf6e3626f1e9c595a170f388798f713d",
          "topics": [
            "0x13518841ff4d3053cb7703afaa39b145c6331829b982d42f4d4fd7568b2e8e24",
            "0x000000000000000000000000b3ed0a426155b79b898849803e3b36552f7ed507"
          ],
          "data": "0x0000000000000000000000000000000000000000000000000000000000000001",
          "blockHash": "0xd2b787516fe9ea0df1e5f0e234a0459cdde25d7380365c3ed3934bef9313b391",
          "blockNumber": "0x6ca64a0",
          "blockTimestamp": "0x6a32be23",
          "transactionHash": "0x210da2439d27d2fb2cbbabf30a6466b92b54984cfd2f899d054c9c3581aa35fb",
          "transactionIndex": "0x1e",
          "logIndex": "0x9f",
          "removed": false
        },
        {
          "address": "0xd69b4f5faf6e3626f1e9c595a170f388798f713d",
          "topics": [
            "0x13518841ff4d3053cb7703afaa39b145c6331829b982d42f4d4fd7568b2e8e24",
            "0x000000000000000000000000365de036a1f7dccb621530d517133521debb2013"
          ],
          "data": "0x0000000000000000000000000000000000000000000000000000000000000001",
          "blockHash": "0xd2b787516fe9ea0df1e5f0e234a0459cdde25d7380365c3ed3934bef9313b391",
          "blockNumber": "0x6ca64a0",
          "blockTimestamp": "0x6a32be23",
          "transactionHash": "0x210da2439d27d2fb2cbbabf30a6466b92b54984cfd2f899d054c9c3581aa35fb",
          "transactionIndex": "0x1e",
          "logIndex": "0xa0",
          "removed": false
        },
        {
          "address": "0xd69b4f5faf6e3626f1e9c595a170f388798f713d",
          "topics": [
            "0x13518841ff4d3053cb7703afaa39b145c6331829b982d42f4d4fd7568b2e8e24",
            "0x000000000000000000000000b0d502e938ed5f4df2e681fe6e419ff29631d62b"
          ],
          "data": "0x0000000000000000000000000000000000000000000000000000000000000001",
          "blockHash": "0xd2b787516fe9ea0df1e5f0e234a0459cdde25d7380365c3ed3934bef9313b391",
          "blockNumber": "0x6ca64a0",
          "blockTimestamp": "0x6a32be23",
          "transactionHash": "0x210da2439d27d2fb2cbbabf30a6466b92b54984cfd2f899d054c9c3581aa35fb",
          "transactionIndex": "0x1e",
          "logIndex": "0xa1",
          "removed": false
        },
        {
          "address": "0xd69b4f5faf6e3626f1e9c595a170f388798f713d",
          "topics": [
            "0x13518841ff4d3053cb7703afaa39b145c6331829b982d42f4d4fd7568b2e8e24",
            "0x000000000000000000000000715d400f88c167884bbcc41c5fea407ed4d2f8a0"
          ],
          "data": "0x0000000000000000000000000000000000000000000000000000000000000001",
          "blockHash": "0xd2b787516fe9ea0df1e5f0e234a0459cdde25d7380365c3ed3934bef9313b391",
          "blockNumber": "0x6ca64a0",
          "blockTimestamp": "0x6a32be23",
          "transactionHash": "0x210da2439d27d2fb2cbbabf30a6466b92b54984cfd2f899d054c9c3581aa35fb",
          "transactionIndex": "0x1e",
          "logIndex": "0xa2",
          "removed": false
        },
        {
          "address": "0xd69b4f5faf6e3626f1e9c595a170f388798f713d",
          "topics": [
            "0x13518841ff4d3053cb7703afaa39b145c6331829b982d42f4d4fd7568b2e8e24",
            "0x0000000000000000000000004b0f1812e5df2a09796481ff14017e6005508003"
          ],
          "data": "0x0000000000000000000000000000000000000000000000000000000000000001",
          "blockHash": "0xd2b787516fe9ea0df1e5f0e234a0459cdde25d7380365c3ed3934bef9313b391",
          "blockNumber": "0x6ca64a0",
          "blockTimestamp": "0x6a32be23",
          "transactionHash": "0x210da2439d27d2fb2cbbabf30a6466b92b54984cfd2f899d054c9c3581aa35fb",
          "transactionIndex": "0x1e",
          "logIndex": "0xa3",
          "removed": false
        },
        {
          "address": "0xd69b4f5faf6e3626f1e9c595a170f388798f713d",
          "topics": [
            "0x13518841ff4d3053cb7703afaa39b145c6331829b982d42f4d4fd7568b2e8e24",
            "0x0000000000000000000000004bfaa776991e85e5f8b1255461cbbd216cfc714f"
          ],
          "data": "0x0000000000000000000000000000000000000000000000000000000000000001",
          "blockHash": "0xd2b787516fe9ea0df1e5f0e234a0459cdde25d7380365c3ed3934bef9313b391",
          "blockNumber": "0x6ca64a0",
          "blockTimestamp": "0x6a32be23",
          "transactionHash": "0x210da2439d27d2fb2cbbabf30a6466b92b54984cfd2f899d054c9c3581aa35fb",
          "transactionIndex": "0x1e",
          "logIndex": "0xa4",
          "removed": false
        },
        {
          "address": "0xd69b4f5faf6e3626f1e9c595a170f388798f713d",
          "topics": [
            "0x13518841ff4d3053cb7703afaa39b145c6331829b982d42f4d4fd7568b2e8e24",
            "0x00000000000000000000000052ce071bd9b1c4b00a0b92d298c512478cad67e8"
          ],
          "data": "0x0000000000000000000000000000000000000000000000000000000000000001",
          "blockHash": "0xd2b787516fe9ea0df1e5f0e234a0459cdde25d7380365c3ed3934bef9313b391",
          "blockNumber": "0x6ca64a0",
          "blockTimestamp": "0x6a32be23",
          "transactionHash": "0x210da2439d27d2fb2cbbabf30a6466b92b54984cfd2f899d054c9c3581aa35fb",
          "transactionIndex": "0x1e",
          "logIndex": "0xa5",
          "removed": false
        }
      ],
      "logsBloom": "0x082000000000000000000000000000000000000200000a4040040000800020008100000000080000400000010000010000100000004000000000000000000000100040000000010200200210020000000100088010112020000000000010000020001000000020800000000004410400000010800000000040060080080040800001000001000000000000200040000020002000000000000040080040000000000002040000000000201000400004102004000001004080040000000000100000000000010000000000000000000000000000000000002004000800100000100000000000022210004000400000000000140020100000000000400000100001",
      "type": "0x0",
      "transactionHash": "0x210da2439d27d2fb2cbbabf30a6466b92b54984cfd2f899d054c9c3581aa35fb",
      "transactionIndex": "0x1e",
      "blockHash": "0xd2b787516fe9ea0df1e5f0e234a0459cdde25d7380365c3ed3934bef9313b391",
      "blockNumber": "0x6ca64a0",
      "gasUsed": "0xbff9c",
      "effectiveGasPrice": "0x5f5e100",
      "from": "0x3660362beb3a95ce16d981e7d30e1e025e741393",
      "to": "0xd69b4f5faf6e3626f1e9c595a170f388798f713d",
      "contractAddress": null
    },
    {
      "status": "0x1",
      "cumulativeGasUsed": "0x9296a0",
      "logs": [
        {
          "address": "0xd69b4f5faf6e3626f1e9c595a170f388798f713d",
          "topics": [
            "0x13518841ff4d3053cb7703afaa39b145c6331829b982d42f4d4fd7568b2e8e24",
            "0x00000000000000000000000030117e4bc17d7b044194b76a38365c53b72f7d49"
          ],
          "data": "0x0000000000000000000000000000000000000000000000000000000000000001",
          "blockHash": "0xd2b787516fe9ea0df1e5f0e234a0459cdde25d7380365c3ed3934bef9313b391",
          "blockNumber": "0x6ca64a0",
          "blockTimestamp": "0x6a32be23",
          "transactionHash": "0xfb74367e68c5279e17ae4b0cbec6a045f256bccd4cb44a1470f92c3c7ecd7ee4",
          "transactionIndex": "0x1f",
          "logIndex": "0xa6",
          "removed": false
        },
        {
          "address": "0xd69b4f5faf6e3626f1e9c595a170f388798f713d",
          "topics": [
            "0x13518841ff4d3053cb7703afaa39b145c6331829b982d42f4d4fd7568b2e8e24",
            "0x0000000000000000000000007324c7c0d95cebc73eea7e85cbaac0dbdf88a05b"
          ],
          "data": "0x0000000000000000000000000000000000000000000000000000000000000001",
          "blockHash": "0xd2b787516fe9ea0df1e5f0e234a0459cdde25d7380365c3ed3934bef9313b391",
          "blockNumber": "0x6ca64a0",
          "blockTimestamp": "0x6a32be23",
          "transactionHash": "0xfb74367e68c5279e17ae4b0cbec6a045f256bccd4cb44a1470f92c3c7ecd7ee4",
          "transactionIndex": "0x1f",
          "logIndex": "0xa7",
          "removed": false
        },
        {
          "address": "0xd69b4f5faf6e3626f1e9c595a170f388798f713d",
          "topics": [
            "0x13518841ff4d3053cb7703afaa39b145c6331829b982d42f4d4fd7568b2e8e24",
            "0x0000000000000000000000001f12b85aac097e43aa1555b2881e98a51090e9a6"
          ],
          "data": "0x0000000000000000000000000000000000000000000000000000000000000001",
          "blockHash": "0xd2b787516fe9ea0df1e5f0e234a0459cdde25d7380365c3ed3934bef9313b391",
          "blockNumber": "0x6ca64a0",
          "blockTimestamp": "0x6a32be23",
          "transactionHash": "0xfb74367e68c5279e17ae4b0cbec6a045f256bccd4cb44a1470f92c3c7ecd7ee4",
          "transactionIndex": "0x1f",
          "logIndex": "0xa8",
          "removed": false
        },
        {
          "address": "0xd69b4f5faf6e3626f1e9c595a170f388798f713d",
          "topics": [
            "0x13518841ff4d3053cb7703afaa39b145c6331829b982d42f4d4fd7568b2e8e24",
            "0x000000000000000000000000405fbc9004d857903bfd6b3357792d71a50726b0"
          ],
          "data": "0x0000000000000000000000000000000000000000000000000000000000000001",
          "blockHash": "0xd2b787516fe9ea0df1e5f0e234a0459cdde25d7380365c3ed3934bef9313b391",
          "blockNumber": "0x6ca64a0",
          "blockTimestamp": "0x6a32be23",
          "transactionHash": "0xfb74367e68c5279e17ae4b0cbec6a045f256bccd4cb44a1470f92c3c7ecd7ee4",
          "transactionIndex": "0x1f",
          "logIndex": "0xa9",
          "removed": false
        },
        {
          "address": "0xd69b4f5faf6e3626f1e9c595a170f388798f713d",
          "topics": [
            "0x13518841ff4d3053cb7703afaa39b145c6331829b982d42f4d4fd7568b2e8e24",
            "0x000000000000000000000000101d82428437127bf1608f699cd651e6abf9766e"
          ],
          "data": "0x0000000000000000000000000000000000000000000000000000000000000001",
          "blockHash": "0xd2b787516fe9ea0df1e5f0e234a0459cdde25d7380365c3ed3934bef9313b391",
          "blockNumber": "0x6ca64a0",
          "blockTimestamp": "0x6a32be23",
          "transactionHash": "0xfb74367e68c5279e17ae4b0cbec6a045f256bccd4cb44a1470f92c3c7ecd7ee4",
          "transactionIndex": "0x1f",
          "logIndex": "0xaa",
          "removed": false
        },
        {
          "address": "0xd69b4f5faf6e3626f1e9c595a170f388798f713d",
          "topics": [
            "0x13518841ff4d3053cb7703afaa39b145c6331829b982d42f4d4fd7568b2e8e24",
            "0x00000000000000000000000092aa03137385f18539301349dcfc9ebc923ffb10"
          ],
          "data": "0x0000000000000000000000000000000000000000000000000000000000000001",
          "blockHash": "0xd2b787516fe9ea0df1e5f0e234a0459cdde25d7380365c3ed3934bef9313b391",
          "blockNumber": "0x6ca64a0",
          "blockTimestamp": "0x6a32be23",
          "transactionHash": "0xfb74367e68c5279e17ae4b0cbec6a045f256bccd4cb44a1470f92c3c7ecd7ee4",
          "transactionIndex": "0x1f",
          "logIndex": "0xab",
          "removed": false
        },
        {
          "address": "0xd69b4f5faf6e3626f1e9c595a170f388798f713d",
          "topics": [
            "0x13518841ff4d3053cb7703afaa39b145c6331829b982d42f4d4fd7568b2e8e24",
            "0x0000000000000000000000008f86a15ec17cb3369d8b3e666dadbc11daa82b79"
          ],
          "data": "0x0000000000000000000000000000000000000000000000000000000000000001",
          "blockHash": "0xd2b787516fe9ea0df1e5f0e234a0459cdde25d7380365c3ed3934bef9313b391",
          "blockNumber": "0x6ca64a0",
          "blockTimestamp": "0x6a32be23",
          "transactionHash": "0xfb74367e68c5279e17ae4b0cbec6a045f256bccd4cb44a1470f92c3c7ecd7ee4",
          "transactionIndex": "0x1f",
          "logIndex": "0xac",
          "removed": false
        },
        {
          "address": "0xd69b4f5faf6e3626f1e9c595a170f388798f713d",
          "topics": [
            "0x13518841ff4d3053cb7703afaa39b145c6331829b982d42f4d4fd7568b2e8e24",
            "0x000000000000000000000000d41fdb03ba84762dd66a0af1a6c8540ff1ba5dfb"
          ],
          "data": "0x0000000000000000000000000000000000000000000000000000000000000001",
          "blockHash": "0xd2b787516fe9ea0df1e5f0e234a0459cdde25d7380365c3ed3934bef9313b391",
          "blockNumber": "0x6ca64a0",
          "blockTimestamp": "0x6a32be23",
          "transactionHash": "0xfb74367e68c5279e17ae4b0cbec6a045f256bccd4cb44a1470f92c3c7ecd7ee4",
          "transactionIndex": "0x1f",
          "logIndex": "0xad",
          "removed": false
        },
        {
          "address": "0xd69b4f5faf6e3626f1e9c595a170f388798f713d",
          "topics": [
            "0x13518841ff4d3053cb7703afaa39b145c6331829b982d42f4d4fd7568b2e8e24",
            "0x000000000000000000000000208bf3e7da9639f1eaefa2de78c23396b0682025"
          ],
          "data": "0x0000000000000000000000000000000000000000000000000000000000000001",
          "blockHash": "0xd2b787516fe9ea0df1e5f0e234a0459cdde25d7380365c3ed3934bef9313b391",
          "blockNumber": "0x6ca64a0",
          "blockTimestamp": "0x6a32be23",
          "transactionHash": "0xfb74367e68c5279e17ae4b0cbec6a045f256bccd4cb44a1470f92c3c7ecd7ee4",
          "transactionIndex": "0x1f",
          "logIndex": "0xae",
          "removed": false
        },
        {
          "address": "0xd69b4f5faf6e3626f1e9c595a170f388798f713d",
          "topics": [
            "0x13518841ff4d3053cb7703afaa39b145c6331829b982d42f4d4fd7568b2e8e24",
            "0x000000000000000000000000f2b51cc1850fed939658317a22d73d3482767591"
          ],
          "data": "0x0000000000000000000000000000000000000000000000000000000000000001",
          "blockHash": "0xd2b787516fe9ea0df1e5f0e234a0459cdde25d7380365c3ed3934bef9313b391",
          "blockNumber": "0x6ca64a0",
          "blockTimestamp": "0x6a32be23",
          "transactionHash": "0xfb74367e68c5279e17ae4b0cbec6a045f256bccd4cb44a1470f92c3c7ecd7ee4",
          "transactionIndex": "0x1f",
          "logIndex": "0xaf",
          "removed": false
        },
        {
          "address": "0xd69b4f5faf6e3626f1e9c595a170f388798f713d",
          "topics": [
            "0x13518841ff4d3053cb7703afaa39b145c6331829b982d42f4d4fd7568b2e8e24",
            "0x00000000000000000000000095034f653d5d161890836ad2b6b8cc49d14e029a"
          ],
          "data": "0x0000000000000000000000000000000000000000000000000000000000000001",
          "blockHash": "0xd2b787516fe9ea0df1e5f0e234a0459cdde25d7380365c3ed3934bef9313b391",
          "blockNumber": "0x6ca64a0",
          "blockTimestamp": "0x6a32be23",
          "transactionHash": "0xfb74367e68c5279e17ae4b0cbec6a045f256bccd4cb44a1470f92c3c7ecd7ee4",
          "transactionIndex": "0x1f",
          "logIndex": "0xb0",
          "removed": false
        },
        {
          "address": "0xd69b4f5faf6e3626f1e9c595a170f388798f713d",
          "topics": [
            "0x13518841ff4d3053cb7703afaa39b145c6331829b982d42f4d4fd7568b2e8e24",
            "0x000000000000000000000000fdffb411c4a70aa7c95d5c981a6fb4da867e1111"
          ],
          "data": "0x0000000000000000000000000000000000000000000000000000000000000001",
          "blockHash": "0xd2b787516fe9ea0df1e5f0e234a0459cdde25d7380365c3ed3934bef9313b391",
          "blockNumber": "0x6ca64a0",
          "blockTimestamp": "0x6a32be23",
          "transactionHash": "0xfb74367e68c5279e17ae4b0cbec6a045f256bccd4cb44a1470f92c3c7ecd7ee4",
          "transactionIndex": "0x1f",
          "logIndex": "0xb1",
          "removed": false
        },
        {
          "address": "0xd69b4f5faf6e3626f1e9c595a170f388798f713d",
          "topics": [
            "0x13518841ff4d3053cb7703afaa39b145c6331829b982d42f4d4fd7568b2e8e24",
            "0x000000000000000000000000111111111117dc0aa78b770fa6a738034120c302"
          ],
          "data": "0x0000000000000000000000000000000000000000000000000000000000000001",
          "blockHash": "0xd2b787516fe9ea0df1e5f0e234a0459cdde25d7380365c3ed3934bef9313b391",
          "blockNumber": "0x6ca64a0",
          "blockTimestamp": "0x6a32be23",
          "transactionHash": "0xfb74367e68c5279e17ae4b0cbec6a045f256bccd4cb44a1470f92c3c7ecd7ee4",
          "transactionIndex": "0x1f",
          "logIndex": "0xb2",
          "removed": false
        },
        {
          "address": "0xd69b4f5faf6e3626f1e9c595a170f388798f713d",
          "topics": [
            "0x13518841ff4d3053cb7703afaa39b145c6331829b982d42f4d4fd7568b2e8e24",
            "0x0000000000000000000000000df0587216a4a1bb7d5082fdc491d93d2dd4b413"
          ],
          "data": "0x0000000000000000000000000000000000000000000000000000000000000001",
          "blockHash": "0xd2b787516fe9ea0df1e5f0e234a0459cdde25d7380365c3ed3934bef9313b391",
          "blockNumber": "0x6ca64a0",
          "blockTimestamp": "0x6a32be23",
          "transactionHash": "0xfb74367e68c5279e17ae4b0cbec6a045f256bccd4cb44a1470f92c3c7ecd7ee4",
          "transactionIndex": "0x1f",
          "logIndex": "0xb3",
          "removed": false
        },
        {
          "address": "0xd69b4f5faf6e3626f1e9c595a170f388798f713d",
          "topics": [
            "0x13518841ff4d3053cb7703afaa39b145c6331829b982d42f4d4fd7568b2e8e24",
            "0x0000000000000000000000003d4f0513e8a29669b960f9dbca61861548a9a760"
          ],
          "data": "0x0000000000000000000000000000000000000000000000000000000000000001",
          "blockHash": "0xd2b787516fe9ea0df1e5f0e234a0459cdde25d7380365c3ed3934bef9313b391",
          "blockNumber": "0x6ca64a0",
          "blockTimestamp": "0x6a32be23",
          "transactionHash": "0xfb74367e68c5279e17ae4b0cbec6a045f256bccd4cb44a1470f92c3c7ecd7ee4",
          "transactionIndex": "0x1f",
          "logIndex": "0xb4",
          "removed": false
        },
        {
          "address": "0xd69b4f5faf6e3626f1e9c595a170f388798f713d",
          "topics": [
            "0x13518841ff4d3053cb7703afaa39b145c6331829b982d42f4d4fd7568b2e8e24",
            "0x000000000000000000000000da7ad9dea9397cffddae2f8a052b82f1484252b3"
          ],
          "data": "0x0000000000000000000000000000000000000000000000000000000000000001",
          "blockHash": "0xd2b787516fe9ea0df1e5f0e234a0459cdde25d7380365c3ed3934bef9313b391",
          "blockNumber": "0x6ca64a0",
          "blockTimestamp": "0x6a32be23",
          "transactionHash": "0xfb74367e68c5279e17ae4b0cbec6a045f256bccd4cb44a1470f92c3c7ecd7ee4",
          "transactionIndex": "0x1f",
          "logIndex": "0xb5",
          "removed": false
        },
        {
          "address": "0xd69b4f5faf6e3626f1e9c595a170f388798f713d",
          "topics": [
            "0x13518841ff4d3053cb7703afaa39b145c6331829b982d42f4d4fd7568b2e8e24",
            "0x000000000000000000000000d82544bf0dfe8385ef8fa34d67e6e4940cc63e16"
          ],
          "data": "0x0000000000000000000000000000000000000000000000000000000000000001",
          "blockHash": "0xd2b787516fe9ea0df1e5f0e234a0459cdde25d7380365c3ed3934bef9313b391",
          "blockNumber": "0x6ca64a0",
          "blockTimestamp": "0x6a32be23",
          "transactionHash": "0xfb74367e68c5279e17ae4b0cbec6a045f256bccd4cb44a1470f92c3c7ecd7ee4",
          "transactionIndex": "0x1f",
          "logIndex": "0xb6",
          "removed": false
        },
        {
          "address": "0xd69b4f5faf6e3626f1e9c595a170f388798f713d",
          "topics": [
            "0x13518841ff4d3053cb7703afaa39b145c6331829b982d42f4d4fd7568b2e8e24",
            "0x00000000000000000000000097693439ea2f0ecdeb9135881e49f354656a911c"
          ],
          "data": "0x0000000000000000000000000000000000000000000000000000000000000001",
          "blockHash": "0xd2b787516fe9ea0df1e5f0e234a0459cdde25d7380365c3ed3934bef9313b391",
          "blockNumber": "0x6ca64a0",
          "blockTimestamp": "0x6a32be23",
          "transactionHash": "0xfb74367e68c5279e17ae4b0cbec6a045f256bccd4cb44a1470f92c3c7ecd7ee4",
          "transactionIndex": "0x1f",
          "logIndex": "0xb7",
          "removed": false
        },
        {
          "address": "0xd69b4f5faf6e3626f1e9c595a170f388798f713d",
          "topics": [
            "0x13518841ff4d3053cb7703afaa39b145c6331829b982d42f4d4fd7568b2e8e24",
            "0x0000000000000000000000009ac98382d921314d1d269171634b68e933434685"
          ],
          "data": "0x0000000000000000000000000000000000000000000000000000000000000001",
          "blockHash": "0xd2b787516fe9ea0df1e5f0e234a0459cdde25d7380365c3ed3934bef9313b391",
          "blockNumber": "0x6ca64a0",
          "blockTimestamp": "0x6a32be23",
          "transactionHash": "0xfb74367e68c5279e17ae4b0cbec6a045f256bccd4cb44a1470f92c3c7ecd7ee4",
          "transactionIndex": "0x1f",
          "logIndex": "0xb8",
          "removed": false
        },
        {
          "address": "0xd69b4f5faf6e3626f1e9c595a170f388798f713d",
          "topics": [
            "0x13518841ff4d3053cb7703afaa39b145c6331829b982d42f4d4fd7568b2e8e24",
            "0x00000000000000000000000025a528af62e56512a19ce8c3cab427807c28cc19"
          ],
          "data": "0x0000000000000000000000000000000000000000000000000000000000000001",
          "blockHash": "0xd2b787516fe9ea0df1e5f0e234a0459cdde25d7380365c3ed3934bef9313b391",
          "blockNumber": "0x6ca64a0",
          "blockTimestamp": "0x6a32be23",
          "transactionHash": "0xfb74367e68c5279e17ae4b0cbec6a045f256bccd4cb44a1470f92c3c7ecd7ee4",
          "transactionIndex": "0x1f",
          "logIndex": "0xb9",
          "removed": false
        },
        {
          "address": "0xd69b4f5faf6e3626f1e9c595a170f388798f713d",
          "topics": [
            "0x13518841ff4d3053cb7703afaa39b145c6331829b982d42f4d4fd7568b2e8e24",
            "0x0000000000000000000000005a110fc00474038f6c02e89c707d638602ea44b5"
          ],
          "data": "0x0000000000000000000000000000000000000000000000000000000000000001",
          "blockHash": "0xd2b787516fe9ea0df1e5f0e234a0459cdde25d7380365c3ed3934bef9313b391",
          "blockNumber": "0x6ca64a0",
          "blockTimestamp": "0x6a32be23",
          "transactionHash": "0xfb74367e68c5279e17ae4b0cbec6a045f256bccd4cb44a1470f92c3c7ecd7ee4",
          "transactionIndex": "0x1f",
          "logIndex": "0xba",
          "removed": false
        },
        {
          "address": "0xd69b4f5faf6e3626f1e9c595a170f388798f713d",
          "topics": [
            "0x13518841ff4d3053cb7703afaa39b145c6331829b982d42f4d4fd7568b2e8e24",
            "0x000000000000000000000000c8ef4398664b2eed5ee560544f659083d98a3888"
          ],
          "data": "0x0000000000000000000000000000000000000000000000000000000000000001",
          "blockHash": "0xd2b787516fe9ea0df1e5f0e234a0459cdde25d7380365c3ed3934bef9313b391",
          "blockNumber": "0x6ca64a0",
          "blockTimestamp": "0x6a32be23",
          "transactionHash": "0xfb74367e68c5279e17ae4b0cbec6a045f256bccd4cb44a1470f92c3c7ecd7ee4",
          "transactionIndex": "0x1f",
          "logIndex": "0xbb",
          "removed": false
        },
        {
          "address": "0xd69b4f5faf6e3626f1e9c595a170f388798f713d",
          "topics": [
            "0x13518841ff4d3053cb7703afaa39b145c6331829b982d42f4d4fd7568b2e8e24",
            "0x00000000000000000000000090bbddbf3223363898065b9c736e2b86c655762b"
          ],
          "data": "0x0000000000000000000000000000000000000000000000000000000000000001",
          "blockHash": "0xd2b787516fe9ea0df1e5f0e234a0459cdde25d7380365c3ed3934bef9313b391",
          "blockNumber": "0x6ca64a0",
          "blockTimestamp": "0x6a32be23",
          "transactionHash": "0xfb74367e68c5279e17ae4b0cbec6a045f256bccd4cb44a1470f92c3c7ecd7ee4",
          "transactionIndex": "0x1f",
          "logIndex": "0xbc",
          "removed": false
        },
        {
          "address": "0xd69b4f5faf6e3626f1e9c595a170f388798f713d",
          "topics": [
            "0x13518841ff4d3053cb7703afaa39b145c6331829b982d42f4d4fd7568b2e8e24",
            "0x0000000000000000000000008a063a9ff4de28dcb87117cc759be6ce70e09f81"
          ],
          "data": "0x0000000000000000000000000000000000000000000000000000000000000001",
          "blockHash": "0xd2b787516fe9ea0df1e5f0e234a0459cdde25d7380365c3ed3934bef9313b391",
          "blockNumber": "0x6ca64a0",
          "blockTimestamp": "0x6a32be23",
          "transactionHash": "0xfb74367e68c5279e17ae4b0cbec6a045f256bccd4cb44a1470f92c3c7ecd7ee4",
          "transactionIndex": "0x1f",
          "logIndex": "0xbd",
          "removed": false
        },
        {
          "address": "0xd69b4f5faf6e3626f1e9c595a170f388798f713d",
          "topics": [
            "0x13518841ff4d3053cb7703afaa39b145c6331829b982d42f4d4fd7568b2e8e24",
            "0x00000000000000000000000040b8129b786d766267a7a118cf8c07e31cdb6fde"
          ],
          "data": "0x0000000000000000000000000000000000000000000000000000000000000001",
          "blockHash": "0xd2b787516fe9ea0df1e5f0e234a0459cdde25d7380365c3ed3934bef9313b391",
          "blockNumber": "0x6ca64a0",
          "blockTimestamp": "0x6a32be23",
          "transactionHash": "0xfb74367e68c5279e17ae4b0cbec6a045f256bccd4cb44a1470f92c3c7ecd7ee4",
          "transactionIndex": "0x1f",
          "logIndex": "0xbe",
          "removed": false
        },
        {
          "address": "0xd69b4f5faf6e3626f1e9c595a170f388798f713d",
          "topics": [
            "0x13518841ff4d3053cb7703afaa39b145c6331829b982d42f4d4fd7568b2e8e24",
            "0x000000000000000000000000e48a3d7d0bc88d552f730b62c006bc925eadb9ee"
          ],
          "data": "0x0000000000000000000000000000000000000000000000000000000000000001",
          "blockHash": "0xd2b787516fe9ea0df1e5f0e234a0459cdde25d7380365c3ed3934bef9313b391",
          "blockNumber": "0x6ca64a0",
          "blockTimestamp": "0x6a32be23",
          "transactionHash": "0xfb74367e68c5279e17ae4b0cbec6a045f256bccd4cb44a1470f92c3c7ecd7ee4",
          "transactionIndex": "0x1f",
          "logIndex": "0xbf",
          "removed": false
        },
        {
          "address": "0xd69b4f5faf6e3626f1e9c595a170f388798f713d",
          "topics": [
            "0x13518841ff4d3053cb7703afaa39b145c6331829b982d42f4d4fd7568b2e8e24",
            "0x000000000000000000000000df24f8c21cb404b3031a450d8e049d6e39fc1fa5"
          ],
          "data": "0x0000000000000000000000000000000000000000000000000000000000000001",
          "blockHash": "0xd2b787516fe9ea0df1e5f0e234a0459cdde25d7380365c3ed3934bef9313b391",
          "blockNumber": "0x6ca64a0",
          "blockTimestamp": "0x6a32be23",
          "transactionHash": "0xfb74367e68c5279e17ae4b0cbec6a045f256bccd4cb44a1470f92c3c7ecd7ee4",
          "transactionIndex": "0x1f",
          "logIndex": "0xc0",
          "removed": false
        },
        {
          "address": "0xd69b4f5faf6e3626f1e9c595a170f388798f713d",
          "topics": [
            "0x13518841ff4d3053cb7703afaa39b145c6331829b982d42f4d4fd7568b2e8e24",
            "0x00000000000000000000000090c48855bb69f9d2c261efd0d8c7f35990f2dd6f"
          ],
          "data": "0x0000000000000000000000000000000000000000000000000000000000000001",
          "blockHash": "0xd2b787516fe9ea0df1e5f0e234a0459cdde25d7380365c3ed3934bef9313b391",
          "blockNumber": "0x6ca64a0",
          "blockTimestamp": "0x6a32be23",
          "transactionHash": "0xfb74367e68c5279e17ae4b0cbec6a045f256bccd4cb44a1470f92c3c7ecd7ee4",
          "transactionIndex": "0x1f",
          "logIndex": "0xc1",
          "removed": false
        },
        {
          "address": "0xd69b4f5faf6e3626f1e9c595a170f388798f713d",
          "topics": [
            "0x13518841ff4d3053cb7703afaa39b145c6331829b982d42f4d4fd7568b2e8e24",
            "0x000000000000000000000000e6df05ce8c8301223373cf5b969afcb1498c5528"
          ],
          "data": "0x0000000000000000000000000000000000000000000000000000000000000001",
          "blockHash": "0xd2b787516fe9ea0df1e5f0e234a0459cdde25d7380365c3ed3934bef9313b391",
          "blockNumber": "0x6ca64a0",
          "blockTimestamp": "0x6a32be23",
          "transactionHash": "0xfb74367e68c5279e17ae4b0cbec6a045f256bccd4cb44a1470f92c3c7ecd7ee4",
          "transactionIndex": "0x1f",
          "logIndex": "0xc2",
          "removed": false
        },
        {
          "address": "0xd69b4f5faf6e3626f1e9c595a170f388798f713d",
          "topics": [
            "0x13518841ff4d3053cb7703afaa39b145c6331829b982d42f4d4fd7568b2e8e24",
            "0x0000000000000000000000002066a3d706509f7a75003503250882e38166ba6d"
          ],
          "data": "0x0000000000000000000000000000000000000000000000000000000000000001",
          "blockHash": "0xd2b787516fe9ea0df1e5f0e234a0459cdde25d7380365c3ed3934bef9313b391",
          "blockNumber": "0x6ca64a0",
          "blockTimestamp": "0x6a32be23",
          "transactionHash": "0xfb74367e68c5279e17ae4b0cbec6a045f256bccd4cb44a1470f92c3c7ecd7ee4",
          "transactionIndex": "0x1f",
          "logIndex": "0xc3",
          "removed": false
        }
      ],
      "logsBloom": "0x000000c0000000000400080000000400002000000000000100800000240000000000080000800080000800002100000100100004000000000001020000100000010000080000000000000200000100000000000000000000000000801000200108001000081000802200000000080001000008000c0000000000040000001000000000004140004001000800000000400000000000002100000000000000000000010000010006000000000040000400000080904000080004001800200000000000000040800400000400000000004000000000000008000000100000004040000000000000001104100008400000200200a101200000001000000000800080",
      "type": "0x0",
      "transactionHash": "0xfb74367e68c5279e17ae4b0cbec6a045f256bccd4cb44a1470f92c3c7ecd7ee4",
      "transactionIndex": "0x1f",
      "blockHash": "0xd2b787516fe9ea0df1e5f0e234a0459cdde25d7380365c3ed3934bef9313b391",
      "blockNumber": "0x6ca64a0",
      "gasUsed": "0xbff90",
      "effectiveGasPrice": "0x5f5e100",
      "from": "0x3660362beb3a95ce16d981e7d30e1e025e741393",
      "to": "0xd69b4f5faf6e3626f1e9c595a170f388798f713d",
      "contractAddress": null
    },
    {
      "status": "0x1",
      "cumulativeGasUsed": "0x9e95f4",
      "logs": [
        {
          "address": "0xd69b4f5faf6e3626f1e9c595a170f388798f713d",
          "topics": [
            "0x13518841ff4d3053cb7703afaa39b145c6331829b982d42f4d4fd7568b2e8e24",
            "0x0000000000000000000000007ddc52c4de30e94be3a6a0a2b259b2850f421989"
          ],
          "data": "0x0000000000000000000000000000000000000000000000000000000000000001",
          "blockHash": "0xd2b787516fe9ea0df1e5f0e234a0459cdde25d7380365c3ed3934bef9313b391",
          "blockNumber": "0x6ca64a0",
          "blockTimestamp": "0x6a32be23",
          "transactionHash": "0x31f07f220317673fe83a5154cbdd14cde8b9944499ed396232fbfee19f666407",
          "transactionIndex": "0x20",
          "logIndex": "0xc4",
          "removed": false
        },
        {
          "address": "0xd69b4f5faf6e3626f1e9c595a170f388798f713d",
          "topics": [
            "0x13518841ff4d3053cb7703afaa39b145c6331829b982d42f4d4fd7568b2e8e24",
            "0x000000000000000000000000c6bdfc4f2e90196738873e824a9efa03f7c64176"
          ],
          "data": "0x0000000000000000000000000000000000000000000000000000000000000001",
          "blockHash": "0xd2b787516fe9ea0df1e5f0e234a0459cdde25d7380365c3ed3934bef9313b391",
          "blockNumber": "0x6ca64a0",
          "blockTimestamp": "0x6a32be23",
          "transactionHash": "0x31f07f220317673fe83a5154cbdd14cde8b9944499ed396232fbfee19f666407",
          "transactionIndex": "0x20",
          "logIndex": "0xc5",
          "removed": false
        },
        {
          "address": "0xd69b4f5faf6e3626f1e9c595a170f388798f713d",
          "topics": [
            "0x13518841ff4d3053cb7703afaa39b145c6331829b982d42f4d4fd7568b2e8e24",
            "0x000000000000000000000000a5c8e1513b6a08334b479fe4d71f1253259469be"
          ],
          "data": "0x0000000000000000000000000000000000000000000000000000000000000001",
          "blockHash": "0xd2b787516fe9ea0df1e5f0e234a0459cdde25d7380365c3ed3934bef9313b391",
          "blockNumber": "0x6ca64a0",
          "blockTimestamp": "0x6a32be23",
          "transactionHash": "0x31f07f220317673fe83a5154cbdd14cde8b9944499ed396232fbfee19f666407",
          "transactionIndex": "0x20",
          "logIndex": "0xc6",
          "removed": false
        },
        {
          "address": "0xd69b4f5faf6e3626f1e9c595a170f388798f713d",
          "topics": [
            "0x13518841ff4d3053cb7703afaa39b145c6331829b982d42f4d4fd7568b2e8e24",
            "0x000000000000000000000000af44a1e76f56ee12adbb7ba8acd3cbd474888122"
          ],
          "data": "0x0000000000000000000000000000000000000000000000000000000000000001",
          "blockHash": "0xd2b787516fe9ea0df1e5f0e234a0459cdde25d7380365c3ed3934bef9313b391",
          "blockNumber": "0x6ca64a0",
          "blockTimestamp": "0x6a32be23",
          "transactionHash": "0x31f07f220317673fe83a5154cbdd14cde8b9944499ed396232fbfee19f666407",
          "transactionIndex": "0x20",
          "logIndex": "0xc7",
          "removed": false
        },
        {
          "address": "0xd69b4f5faf6e3626f1e9c595a170f388798f713d",
          "topics": [
            "0x13518841ff4d3053cb7703afaa39b145c6331829b982d42f4d4fd7568b2e8e24",
            "0x0000000000000000000000004b948d64de1f71fcd12fb586f4c776421a35b3ee"
          ],
          "data": "0x0000000000000000000000000000000000000000000000000000000000000001",
          "blockHash": "0xd2b787516fe9ea0df1e5f0e234a0459cdde25d7380365c3ed3934bef9313b391",
          "blockNumber": "0x6ca64a0",
          "blockTimestamp": "0x6a32be23",
          "transactionHash": "0x31f07f220317673fe83a5154cbdd14cde8b9944499ed396232fbfee19f666407",
          "transactionIndex": "0x20",
          "logIndex": "0xc8",
          "removed": false
        },
        {
          "address": "0xd69b4f5faf6e3626f1e9c595a170f388798f713d",
          "topics": [
            "0x13518841ff4d3053cb7703afaa39b145c6331829b982d42f4d4fd7568b2e8e24",
            "0x00000000000000000000000062d0a8458ed7719fdaf978fe5929c6d342b0bfce"
          ],
          "data": "0x0000000000000000000000000000000000000000000000000000000000000001",
          "blockHash": "0xd2b787516fe9ea0df1e5f0e234a0459cdde25d7380365c3ed3934bef9313b391",
          "blockNumber": "0x6ca64a0",
          "blockTimestamp": "0x6a32be23",
          "transactionHash": "0x31f07f220317673fe83a5154cbdd14cde8b9944499ed396232fbfee19f666407",
          "transactionIndex": "0x20",
          "logIndex": "0xc9",
          "removed": false
        },
        {
          "address": "0xd69b4f5faf6e3626f1e9c595a170f388798f713d",
          "topics": [
            "0x13518841ff4d3053cb7703afaa39b145c6331829b982d42f4d4fd7568b2e8e24",
            "0x000000000000000000000000b9e1fd5a02d3a33b25a14d661414e6ed6954a721"
          ],
          "data": "0x0000000000000000000000000000000000000000000000000000000000000001",
          "blockHash": "0xd2b787516fe9ea0df1e5f0e234a0459cdde25d7380365c3ed3934bef9313b391",
          "blockNumber": "0x6ca64a0",
          "blockTimestamp": "0x6a32be23",
          "transactionHash": "0x31f07f220317673fe83a5154cbdd14cde8b9944499ed396232fbfee19f666407",
          "transactionIndex": "0x20",
          "logIndex": "0xca",
          "removed": false
        },
        {
          "address": "0xd69b4f5faf6e3626f1e9c595a170f388798f713d",
          "topics": [
            "0x13518841ff4d3053cb7703afaa39b145c6331829b982d42f4d4fd7568b2e8e24",
            "0x000000000000000000000000c07e1300dc138601fa6b0b59f8d0fa477e690589"
          ],
          "data": "0x0000000000000000000000000000000000000000000000000000000000000001",
          "blockHash": "0xd2b787516fe9ea0df1e5f0e234a0459cdde25d7380365c3ed3934bef9313b391",
          "blockNumber": "0x6ca64a0",
          "blockTimestamp": "0x6a32be23",
          "transactionHash": "0x31f07f220317673fe83a5154cbdd14cde8b9944499ed396232fbfee19f666407",
          "transactionIndex": "0x20",
          "logIndex": "0xcb",
          "removed": false
        },
        {
          "address": "0xd69b4f5faf6e3626f1e9c595a170f388798f713d",
          "topics": [
            "0x13518841ff4d3053cb7703afaa39b145c6331829b982d42f4d4fd7568b2e8e24",
            "0x00000000000000000000000033d08d8c7a168333a85285a68c0042b39fc3741d"
          ],
          "data": "0x0000000000000000000000000000000000000000000000000000000000000001",
          "blockHash": "0xd2b787516fe9ea0df1e5f0e234a0459cdde25d7380365c3ed3934bef9313b391",
          "blockNumber": "0x6ca64a0",
          "blockTimestamp": "0x6a32be23",
          "transactionHash": "0x31f07f220317673fe83a5154cbdd14cde8b9944499ed396232fbfee19f666407",
          "transactionIndex": "0x20",
          "logIndex": "0xcc",
          "removed": false
        },
        {
          "address": "0xd69b4f5faf6e3626f1e9c595a170f388798f713d",
          "topics": [
            "0x13518841ff4d3053cb7703afaa39b145c6331829b982d42f4d4fd7568b2e8e24",
            "0x0000000000000000000000008c907e0a72c3d55627e853f4ec6a96b0c8771145"
          ],
          "data": "0x0000000000000000000000000000000000000000000000000000000000000001",
          "blockHash": "0xd2b787516fe9ea0df1e5f0e234a0459cdde25d7380365c3ed3934bef9313b391",
          "blockNumber": "0x6ca64a0",
          "blockTimestamp": "0x6a32be23",
          "transactionHash": "0x31f07f220317673fe83a5154cbdd14cde8b9944499ed396232fbfee19f666407",
          "transactionIndex": "0x20",
          "logIndex": "0xcd",
          "removed": false
        },
        {
          "address": "0xd69b4f5faf6e3626f1e9c595a170f388798f713d",
          "topics": [
            "0x13518841ff4d3053cb7703afaa39b145c6331829b982d42f4d4fd7568b2e8e24",
            "0x00000000000000000000000088f1a5ae2a3bf98aeaf342d26b30a79438c9142e"
          ],
          "data": "0x0000000000000000000000000000000000000000000000000000000000000001",
          "blockHash": "0xd2b787516fe9ea0df1e5f0e234a0459cdde25d7380365c3ed3934bef9313b391",
          "blockNumber": "0x6ca64a0",
          "blockTimestamp": "0x6a32be23",
          "transactionHash": "0x31f07f220317673fe83a5154cbdd14cde8b9944499ed396232fbfee19f666407",
          "transactionIndex": "0x20",
          "logIndex": "0xce",
          "removed": false
        },
        {
          "address": "0xd69b4f5faf6e3626f1e9c595a170f388798f713d",
          "topics": [
            "0x13518841ff4d3053cb7703afaa39b145c6331829b982d42f4d4fd7568b2e8e24",
            "0x0000000000000000000000001219c409fabe2c27bd0d1a565daeed9bd9f271de"
          ],
          "data": "0x0000000000000000000000000000000000000000000000000000000000000001",
          "blockHash": "0xd2b787516fe9ea0df1e5f0e234a0459cdde25d7380365c3ed3934bef9313b391",
          "blockNumber": "0x6ca64a0",
          "blockTimestamp": "0x6a32be23",
          "transactionHash": "0x31f07f220317673fe83a5154cbdd14cde8b9944499ed396232fbfee19f666407",
          "transactionIndex": "0x20",
          "logIndex": "0xcf",
          "removed": false
        },
        {
          "address": "0xd69b4f5faf6e3626f1e9c595a170f388798f713d",
          "topics": [
            "0x13518841ff4d3053cb7703afaa39b145c6331829b982d42f4d4fd7568b2e8e24",
            "0x0000000000000000000000000782b6d8c4551b9760e74c0545a9bcd90bdc41e5"
          ],
          "data": "0x0000000000000000000000000000000000000000000000000000000000000001",
          "blockHash": "0xd2b787516fe9ea0df1e5f0e234a0459cdde25d7380365c3ed3934bef9313b391",
          "blockNumber": "0x6ca64a0",
          "blockTimestamp": "0x6a32be23",
          "transactionHash": "0x31f07f220317673fe83a5154cbdd14cde8b9944499ed396232fbfee19f666407",
          "transactionIndex": "0x20",
          "logIndex": "0xd0",
          "removed": false
        },
        {
          "address": "0xd69b4f5faf6e3626f1e9c595a170f388798f713d",
          "topics": [
            "0x13518841ff4d3053cb7703afaa39b145c6331829b982d42f4d4fd7568b2e8e24",
            "0x0000000000000000000000000c69199c1562233640e0db5ce2c399a88eb507c7"
          ],
          "data": "0x0000000000000000000000000000000000000000000000000000000000000001",
          "blockHash": "0xd2b787516fe9ea0df1e5f0e234a0459cdde25d7380365c3ed3934bef9313b391",
          "blockNumber": "0x6ca64a0",
          "blockTimestamp": "0x6a32be23",
          "transactionHash": "0x31f07f220317673fe83a5154cbdd14cde8b9944499ed396232fbfee19f666407",
          "transactionIndex": "0x20",
          "logIndex": "0xd1",
          "removed": false
        },
        {
          "address": "0xd69b4f5faf6e3626f1e9c595a170f388798f713d",
          "topics": [
            "0x13518841ff4d3053cb7703afaa39b145c6331829b982d42f4d4fd7568b2e8e24",
            "0x0000000000000000000000006907a5986c4950bdaf2f81828ec0737ce787519f"
          ],
          "data": "0x0000000000000000000000000000000000000000000000000000000000000001",
          "blockHash": "0xd2b787516fe9ea0df1e5f0e234a0459cdde25d7380365c3ed3934bef9313b391",
          "blockNumber": "0x6ca64a0",
          "blockTimestamp": "0x6a32be23",
          "transactionHash": "0x31f07f220317673fe83a5154cbdd14cde8b9944499ed396232fbfee19f666407",
          "transactionIndex": "0x20",
          "logIndex": "0xd2",
          "removed": false
        },
        {
          "address": "0xd69b4f5faf6e3626f1e9c595a170f388798f713d",
          "topics": [
            "0x13518841ff4d3053cb7703afaa39b145c6331829b982d42f4d4fd7568b2e8e24",
            "0x000000000000000000000000b0b92de23baa85fb06208277e925ced53edab482"
          ],
          "data": "0x0000000000000000000000000000000000000000000000000000000000000001",
          "blockHash": "0xd2b787516fe9ea0df1e5f0e234a0459cdde25d7380365c3ed3934bef9313b391",
          "blockNumber": "0x6ca64a0",
          "blockTimestamp": "0x6a32be23",
          "transactionHash": "0x31f07f220317673fe83a5154cbdd14cde8b9944499ed396232fbfee19f666407",
          "transactionIndex": "0x20",
          "logIndex": "0xd3",
          "removed": false
        },
        {
          "address": "0xd69b4f5faf6e3626f1e9c595a170f388798f713d",
          "topics": [
            "0x13518841ff4d3053cb7703afaa39b145c6331829b982d42f4d4fd7568b2e8e24",
            "0x00000000000000000000000092516e0ddf1ddbf7fab1b79cac26689fdc5ba8e6"
          ],
          "data": "0x0000000000000000000000000000000000000000000000000000000000000001",
          "blockHash": "0xd2b787516fe9ea0df1e5f0e234a0459cdde25d7380365c3ed3934bef9313b391",
          "blockNumber": "0x6ca64a0",
          "blockTimestamp": "0x6a32be23",
          "transactionHash": "0x31f07f220317673fe83a5154cbdd14cde8b9944499ed396232fbfee19f666407",
          "transactionIndex": "0x20",
          "logIndex": "0xd4",
          "removed": false
        },
        {
          "address": "0xd69b4f5faf6e3626f1e9c595a170f388798f713d",
          "topics": [
            "0x13518841ff4d3053cb7703afaa39b145c6331829b982d42f4d4fd7568b2e8e24",
            "0x0000000000000000000000005afadcd1e8e3ca78ee2d37100102f2aec8bc0aa8"
          ],
          "data": "0x0000000000000000000000000000000000000000000000000000000000000001",
          "blockHash": "0xd2b787516fe9ea0df1e5f0e234a0459cdde25d7380365c3ed3934bef9313b391",
          "blockNumber": "0x6ca64a0",
          "blockTimestamp": "0x6a32be23",
          "transactionHash": "0x31f07f220317673fe83a5154cbdd14cde8b9944499ed396232fbfee19f666407",
          "transactionIndex": "0x20",
          "logIndex": "0xd5",
          "removed": false
        },
        {
          "address": "0xd69b4f5faf6e3626f1e9c595a170f388798f713d",
          "topics": [
            "0x13518841ff4d3053cb7703afaa39b145c6331829b982d42f4d4fd7568b2e8e24",
            "0x000000000000000000000000b86abcb37c3a4b64f74f59301aff131a1becc787"
          ],
          "data": "0x0000000000000000000000000000000000000000000000000000000000000001",
          "blockHash": "0xd2b787516fe9ea0df1e5f0e234a0459cdde25d7380365c3ed3934bef9313b391",
          "blockNumber": "0x6ca64a0",
          "blockTimestamp": "0x6a32be23",
          "transactionHash": "0x31f07f220317673fe83a5154cbdd14cde8b9944499ed396232fbfee19f666407",
          "transactionIndex": "0x20",
          "logIndex": "0xd6",
          "removed": false
        },
        {
          "address": "0xd69b4f5faf6e3626f1e9c595a170f388798f713d",
          "topics": [
            "0x13518841ff4d3053cb7703afaa39b145c6331829b982d42f4d4fd7568b2e8e24",
            "0x0000000000000000000000005de3939b2f811a61d830e6f52d13b066881412ab"
          ],
          "data": "0x0000000000000000000000000000000000000000000000000000000000000001",
          "blockHash": "0xd2b787516fe9ea0df1e5f0e234a0459cdde25d7380365c3ed3934bef9313b391",
          "blockNumber": "0x6ca64a0",
          "blockTimestamp": "0x6a32be23",
          "transactionHash": "0x31f07f220317673fe83a5154cbdd14cde8b9944499ed396232fbfee19f666407",
          "transactionIndex": "0x20",
          "logIndex": "0xd7",
          "removed": false
        },
        {
          "address": "0xd69b4f5faf6e3626f1e9c595a170f388798f713d",
          "topics": [
            "0x13518841ff4d3053cb7703afaa39b145c6331829b982d42f4d4fd7568b2e8e24",
            "0x0000000000000000000000000000028a2eb8346cd5c0267856ab7594b7a55308"
          ],
          "data": "0x0000000000000000000000000000000000000000000000000000000000000001",
          "blockHash": "0xd2b787516fe9ea0df1e5f0e234a0459cdde25d7380365c3ed3934bef9313b391",
          "blockNumber": "0x6ca64a0",
          "blockTimestamp": "0x6a32be23",
          "transactionHash": "0x31f07f220317673fe83a5154cbdd14cde8b9944499ed396232fbfee19f666407",
          "transactionIndex": "0x20",
          "logIndex": "0xd8",
          "removed": false
        },
        {
          "address": "0xd69b4f5faf6e3626f1e9c595a170f388798f713d",
          "topics": [
            "0x13518841ff4d3053cb7703afaa39b145c6331829b982d42f4d4fd7568b2e8e24",
            "0x000000000000000000000000c748673057861a797275cd8a068abb95a902e8de"
          ],
          "data": "0x0000000000000000000000000000000000000000000000000000000000000001",
          "blockHash": "0xd2b787516fe9ea0df1e5f0e234a0459cdde25d7380365c3ed3934bef9313b391",
          "blockNumber": "0x6ca64a0",
          "blockTimestamp": "0x6a32be23",
          "transactionHash": "0x31f07f220317673fe83a5154cbdd14cde8b9944499ed396232fbfee19f666407",
          "transactionIndex": "0x20",
          "logIndex": "0xd9",
          "removed": false
        },
        {
          "address": "0xd69b4f5faf6e3626f1e9c595a170f388798f713d",
          "topics": [
            "0x13518841ff4d3053cb7703afaa39b145c6331829b982d42f4d4fd7568b2e8e24",
            "0x00000000000000000000000000f8da33734feb9b946fec2228c25072d2e2e41f"
          ],
          "data": "0x0000000000000000000000000000000000000000000000000000000000000001",
          "blockHash": "0xd2b787516fe9ea0df1e5f0e234a0459cdde25d7380365c3ed3934bef9313b391",
          "blockNumber": "0x6ca64a0",
          "blockTimestamp": "0x6a32be23",
          "transactionHash": "0x31f07f220317673fe83a5154cbdd14cde8b9944499ed396232fbfee19f666407",
          "transactionIndex": "0x20",
          "logIndex": "0xda",
          "removed": false
        },
        {
          "address": "0xd69b4f5faf6e3626f1e9c595a170f388798f713d",
          "topics": [
            "0x13518841ff4d3053cb7703afaa39b145c6331829b982d42f4d4fd7568b2e8e24",
            "0x000000000000000000000000f00600ebc7633462bc4f9c61ea2ce99f5aaebd4a"
          ],
          "data": "0x0000000000000000000000000000000000000000000000000000000000000001",
          "blockHash": "0xd2b787516fe9ea0df1e5f0e234a0459cdde25d7380365c3ed3934bef9313b391",
          "blockNumber": "0x6ca64a0",
          "blockTimestamp": "0x6a32be23",
          "transactionHash": "0x31f07f220317673fe83a5154cbdd14cde8b9944499ed396232fbfee19f666407",
          "transactionIndex": "0x20",
          "logIndex": "0xdb",
          "removed": false
        },
        {
          "address": "0xd69b4f5faf6e3626f1e9c595a170f388798f713d",
          "topics": [
            "0x13518841ff4d3053cb7703afaa39b145c6331829b982d42f4d4fd7568b2e8e24",
            "0x000000000000000000000000f486ad071f3bee968384d2e39e2d8af0fcf6fd46"
          ],
          "data": "0x0000000000000000000000000000000000000000000000000000000000000001",
          "blockHash": "0xd2b787516fe9ea0df1e5f0e234a0459cdde25d7380365c3ed3934bef9313b391",
          "blockNumber": "0x6ca64a0",
          "blockTimestamp": "0x6a32be23",
          "transactionHash": "0x31f07f220317673fe83a5154cbdd14cde8b9944499ed396232fbfee19f666407",
          "transactionIndex": "0x20",
          "logIndex": "0xdc",
          "removed": false
        },
        {
          "address": "0xd69b4f5faf6e3626f1e9c595a170f388798f713d",
          "topics": [
            "0x13518841ff4d3053cb7703afaa39b145c6331829b982d42f4d4fd7568b2e8e24",
            "0x0000000000000000000000003e5d4f8aee0d9b3082d5f6da5d6e225d17ba9ea0"
          ],
          "data": "0x0000000000000000000000000000000000000000000000000000000000000001",
          "blockHash": "0xd2b787516fe9ea0df1e5f0e234a0459cdde25d7380365c3ed3934bef9313b391",
          "blockNumber": "0x6ca64a0",
          "blockTimestamp": "0x6a32be23",
          "transactionHash": "0x31f07f220317673fe83a5154cbdd14cde8b9944499ed396232fbfee19f666407",
          "transactionIndex": "0x20",
          "logIndex": "0xdd",
          "removed": false
        },
        {
          "address": "0xd69b4f5faf6e3626f1e9c595a170f388798f713d",
          "topics": [
            "0x13518841ff4d3053cb7703afaa39b145c6331829b982d42f4d4fd7568b2e8e24",
            "0x000000000000000000000000a744764431f756f9768b4052f94246101962df86"
          ],
          "data": "0x0000000000000000000000000000000000000000000000000000000000000001",
          "blockHash": "0xd2b787516fe9ea0df1e5f0e234a0459cdde25d7380365c3ed3934bef9313b391",
          "blockNumber": "0x6ca64a0",
          "blockTimestamp": "0x6a32be23",
          "transactionHash": "0x31f07f220317673fe83a5154cbdd14cde8b9944499ed396232fbfee19f666407",
          "transactionIndex": "0x20",
          "logIndex": "0xde",
          "removed": false
        },
        {
          "address": "0xd69b4f5faf6e3626f1e9c595a170f388798f713d",
          "topics": [
            "0x13518841ff4d3053cb7703afaa39b145c6331829b982d42f4d4fd7568b2e8e24",
            "0x000000000000000000000000a227cc36938f0c9e09ce0e64dfab226cad739447"
          ],
          "data": "0x0000000000000000000000000000000000000000000000000000000000000001",
          "blockHash": "0xd2b787516fe9ea0df1e5f0e234a0459cdde25d7380365c3ed3934bef9313b391",
          "blockNumber": "0x6ca64a0",
          "blockTimestamp": "0x6a32be23",
          "transactionHash": "0x31f07f220317673fe83a5154cbdd14cde8b9944499ed396232fbfee19f666407",
          "transactionIndex": "0x20",
          "logIndex": "0xdf",
          "removed": false
        },
        {
          "address": "0xd69b4f5faf6e3626f1e9c595a170f388798f713d",
          "topics": [
            "0x13518841ff4d3053cb7703afaa39b145c6331829b982d42f4d4fd7568b2e8e24",
            "0x000000000000000000000000595deaad1eb5476ff1e649fdb7efc36f1e4679cc"
          ],
          "data": "0x0000000000000000000000000000000000000000000000000000000000000001",
          "blockHash": "0xd2b787516fe9ea0df1e5f0e234a0459cdde25d7380365c3ed3934bef9313b391",
          "blockNumber": "0x6ca64a0",
          "blockTimestamp": "0x6a32be23",
          "transactionHash": "0x31f07f220317673fe83a5154cbdd14cde8b9944499ed396232fbfee19f666407",
          "transactionIndex": "0x20",
          "logIndex": "0xe0",
          "removed": false
        },
        {
          "address": "0xd69b4f5faf6e3626f1e9c595a170f388798f713d",
          "topics": [
            "0x13518841ff4d3053cb7703afaa39b145c6331829b982d42f4d4fd7568b2e8e24",
            "0x0000000000000000000000006a2608dabe09bc1128eec7275b92dfb939d5db3f"
          ],
          "data": "0x0000000000000000000000000000000000000000000000000000000000000001",
          "blockHash": "0xd2b787516fe9ea0df1e5f0e234a0459cdde25d7380365c3ed3934bef9313b391",
          "blockNumber": "0x6ca64a0",
          "blockTimestamp": "0x6a32be23",
          "transactionHash": "0x31f07f220317673fe83a5154cbdd14cde8b9944499ed396232fbfee19f666407",
          "transactionIndex": "0x20",
          "logIndex": "0xe1",
          "removed": false
        }
      ],
      "logsBloom": "0x00014000000000000020000040040040040821001060400000000100000200000000400080100000020000000000008000100000000015410040000000000401000800000000080010000200000000000040040040008100000000020000008000021000400000800000040000001000400000000012801000000000100004000000000001000000001000840000000800004000200000104000080000000000004000000000201000000000008024000008006000000000000000000000000001000000000022000000400002040020000000000000080000000008200004800000008000412000004008000800002000000000000000000000000000000000",
      "type": "0x0",
      "transactionHash": "0x31f07f220317673fe83a5154cbdd14cde8b9944499ed396232fbfee19f666407",
      "transactionIndex": "0x20",
      "blockHash": "0xd2b787516fe9ea0df1e5f0e234a0459cdde25d7380365c3ed3934bef9313b391",
      "blockNumber": "0x6ca64a0",
      "gasUsed": "0xbff54",
      "effectiveGasPrice": "0x5f5e100",
      "from": "0x3660362beb3a95ce16d981e7d30e1e025e741393",
      "to": "0xd69b4f5faf6e3626f1e9c595a170f388798f713d",
      "contractAddress": null
    },
    {
      "status": "0x1",
      "cumulativeGasUsed": "0xa4c5c0",
      "logs": [
        {
          "address": "0xd69b4f5faf6e3626f1e9c595a170f388798f713d",
          "topics": [
            "0x13518841ff4d3053cb7703afaa39b145c6331829b982d42f4d4fd7568b2e8e24",
            "0x0000000000000000000000000f0df6cb17ee5e883eddfef9153fc6036bdb4e37"
          ],
          "data": "0x0000000000000000000000000000000000000000000000000000000000000001",
          "blockHash": "0xd2b787516fe9ea0df1e5f0e234a0459cdde25d7380365c3ed3934bef9313b391",
          "blockNumber": "0x6ca64a0",
          "blockTimestamp": "0x6a32be23",
          "transactionHash": "0x31990a2d90276fb854b7b28b830bb6697f731b604e86d0efb30be266deb67c5f",
          "transactionIndex": "0x21",
          "logIndex": "0xe2",
          "removed": false
        },
        {
          "address": "0xd69b4f5faf6e3626f1e9c595a170f388798f713d",
          "topics": [
            "0x13518841ff4d3053cb7703afaa39b145c6331829b982d42f4d4fd7568b2e8e24",
            "0x000000000000000000000000bc7d6b50616989655afd682fb42743507003056d"
          ],
          "data": "0x0000000000000000000000000000000000000000000000000000000000000001",
          "blockHash": "0xd2b787516fe9ea0df1e5f0e234a0459cdde25d7380365c3ed3934bef9313b391",
          "blockNumber": "0x6ca64a0",
          "blockTimestamp": "0x6a32be23",
          "transactionHash": "0x31990a2d90276fb854b7b28b830bb6697f731b604e86d0efb30be266deb67c5f",
          "transactionIndex": "0x21",
          "logIndex": "0xe3",
          "removed": false
        },
        {
          "address": "0xd69b4f5faf6e3626f1e9c595a170f388798f713d",
          "topics": [
            "0x13518841ff4d3053cb7703afaa39b145c6331829b982d42f4d4fd7568b2e8e24",
            "0x0000000000000000000000008b1f4432f943c465a973fedc6d7aa50fc96f1f65"
          ],
          "data": "0x0000000000000000000000000000000000000000000000000000000000000001",
          "blockHash": "0xd2b787516fe9ea0df1e5f0e234a0459cdde25d7380365c3ed3934bef9313b391",
          "blockNumber": "0x6ca64a0",
          "blockTimestamp": "0x6a32be23",
          "transactionHash": "0x31990a2d90276fb854b7b28b830bb6697f731b604e86d0efb30be266deb67c5f",
          "transactionIndex": "0x21",
          "logIndex": "0xe4",
          "removed": false
        },
        {
          "address": "0xd69b4f5faf6e3626f1e9c595a170f388798f713d",
          "topics": [
            "0x13518841ff4d3053cb7703afaa39b145c6331829b982d42f4d4fd7568b2e8e24",
            "0x000000000000000000000000a3f020a5c92e15be13caf0ee5c95cf79585eecc9"
          ],
          "data": "0x0000000000000000000000000000000000000000000000000000000000000001",
          "blockHash": "0xd2b787516fe9ea0df1e5f0e234a0459cdde25d7380365c3ed3934bef9313b391",
          "blockNumber": "0x6ca64a0",
          "blockTimestamp": "0x6a32be23",
          "transactionHash": "0x31990a2d90276fb854b7b28b830bb6697f731b604e86d0efb30be266deb67c5f",
          "transactionIndex": "0x21",
          "logIndex": "0xe5",
          "removed": false
        },
        {
          "address": "0xd69b4f5faf6e3626f1e9c595a170f388798f713d",
          "topics": [
            "0x13518841ff4d3053cb7703afaa39b145c6331829b982d42f4d4fd7568b2e8e24",
            "0x0000000000000000000000009bafc8d4b487cebff201721702507a3e2c67ad79"
          ],
          "data": "0x0000000000000000000000000000000000000000000000000000000000000001",
          "blockHash": "0xd2b787516fe9ea0df1e5f0e234a0459cdde25d7380365c3ed3934bef9313b391",
          "blockNumber": "0x6ca64a0",
          "blockTimestamp": "0x6a32be23",
          "transactionHash": "0x31990a2d90276fb854b7b28b830bb6697f731b604e86d0efb30be266deb67c5f",
          "transactionIndex": "0x21",
          "logIndex": "0xe6",
          "removed": false
        },
        {
          "address": "0xd69b4f5faf6e3626f1e9c595a170f388798f713d",
          "topics": [
            "0x13518841ff4d3053cb7703afaa39b145c6331829b982d42f4d4fd7568b2e8e24",
            "0x00000000000000000000000091152b4ef635403efbae860edd0f8c321d7c035d"
          ],
          "data": "0x0000000000000000000000000000000000000000000000000000000000000001",
          "blockHash": "0xd2b787516fe9ea0df1e5f0e234a0459cdde25d7380365c3ed3934bef9313b391",
          "blockNumber": "0x6ca64a0",
          "blockTimestamp": "0x6a32be23",
          "transactionHash": "0x31990a2d90276fb854b7b28b830bb6697f731b604e86d0efb30be266deb67c5f",
          "transactionIndex": "0x21",
          "logIndex": "0xe7",
          "removed": false
        },
        {
          "address": "0xd69b4f5faf6e3626f1e9c595a170f388798f713d",
          "topics": [
            "0x13518841ff4d3053cb7703afaa39b145c6331829b982d42f4d4fd7568b2e8e24",
            "0x0000000000000000000000009d1a7a3191102e9f900faa10540837ba84dcbae7"
          ],
          "data": "0x0000000000000000000000000000000000000000000000000000000000000001",
          "blockHash": "0xd2b787516fe9ea0df1e5f0e234a0459cdde25d7380365c3ed3934bef9313b391",
          "blockNumber": "0x6ca64a0",
          "blockTimestamp": "0x6a32be23",
          "transactionHash": "0x31990a2d90276fb854b7b28b830bb6697f731b604e86d0efb30be266deb67c5f",
          "transactionIndex": "0x21",
          "logIndex": "0xe8",
          "removed": false
        },
        {
          "address": "0xd69b4f5faf6e3626f1e9c595a170f388798f713d",
          "topics": [
            "0x13518841ff4d3053cb7703afaa39b145c6331829b982d42f4d4fd7568b2e8e24",
            "0x000000000000000000000000f81ac2e1a0373dde1bce01e2fe694a9b7e3bfcb9"
          ],
          "data": "0x0000000000000000000000000000000000000000000000000000000000000001",
          "blockHash": "0xd2b787516fe9ea0df1e5f0e234a0459cdde25d7380365c3ed3934bef9313b391",
          "blockNumber": "0x6ca64a0",
          "blockTimestamp": "0x6a32be23",
          "transactionHash": "0x31990a2d90276fb854b7b28b830bb6697f731b604e86d0efb30be266deb67c5f",
          "transactionIndex": "0x21",
          "logIndex": "0xe9",
          "removed": false
        },
        {
          "address": "0xd69b4f5faf6e3626f1e9c595a170f388798f713d",
          "topics": [
            "0x13518841ff4d3053cb7703afaa39b145c6331829b982d42f4d4fd7568b2e8e24",
            "0x000000000000000000000000d23a186a78c0b3b805505e5f8ea4083295ef9f3a"
          ],
          "data": "0x0000000000000000000000000000000000000000000000000000000000000001",
          "blockHash": "0xd2b787516fe9ea0df1e5f0e234a0459cdde25d7380365c3ed3934bef9313b391",
          "blockNumber": "0x6ca64a0",
          "blockTimestamp": "0x6a32be23",
          "transactionHash": "0x31990a2d90276fb854b7b28b830bb6697f731b604e86d0efb30be266deb67c5f",
          "transactionIndex": "0x21",
          "logIndex": "0xea",
          "removed": false
        },
        {
          "address": "0xd69b4f5faf6e3626f1e9c595a170f388798f713d",
          "topics": [
            "0x13518841ff4d3053cb7703afaa39b145c6331829b982d42f4d4fd7568b2e8e24",
            "0x000000000000000000000000b2bd0749dbe21f623d9baba856d3b0f0e1bfec9c"
          ],
          "data": "0x0000000000000000000000000000000000000000000000000000000000000001",
          "blockHash": "0xd2b787516fe9ea0df1e5f0e234a0459cdde25d7380365c3ed3934bef9313b391",
          "blockNumber": "0x6ca64a0",
          "blockTimestamp": "0x6a32be23",
          "transactionHash": "0x31990a2d90276fb854b7b28b830bb6697f731b604e86d0efb30be266deb67c5f",
          "transactionIndex": "0x21",
          "logIndex": "0xeb",
          "removed": false
        },
        {
          "address": "0xd69b4f5faf6e3626f1e9c595a170f388798f713d",
          "topics": [
            "0x13518841ff4d3053cb7703afaa39b145c6331829b982d42f4d4fd7568b2e8e24",
            "0x000000000000000000000000947950bcc74888a40ffa2593c5798f11fc9124c4"
          ],
          "data": "0x0000000000000000000000000000000000000000000000000000000000000001",
          "blockHash": "0xd2b787516fe9ea0df1e5f0e234a0459cdde25d7380365c3ed3934bef9313b391",
          "blockNumber": "0x6ca64a0",
          "blockTimestamp": "0x6a32be23",
          "transactionHash": "0x31990a2d90276fb854b7b28b830bb6697f731b604e86d0efb30be266deb67c5f",
          "transactionIndex": "0x21",
          "logIndex": "0xec",
          "removed": false
        },
        {
          "address": "0xd69b4f5faf6e3626f1e9c595a170f388798f713d",
          "topics": [
            "0x13518841ff4d3053cb7703afaa39b145c6331829b982d42f4d4fd7568b2e8e24",
            "0x0000000000000000000000008b9ee39195ea99d6ddd68030f44131116bc218f6"
          ],
          "data": "0x0000000000000000000000000000000000000000000000000000000000000001",
          "blockHash": "0xd2b787516fe9ea0df1e5f0e234a0459cdde25d7380365c3ed3934bef9313b391",
          "blockNumber": "0x6ca64a0",
          "blockTimestamp": "0x6a32be23",
          "transactionHash": "0x31990a2d90276fb854b7b28b830bb6697f731b604e86d0efb30be266deb67c5f",
          "transactionIndex": "0x21",
          "logIndex": "0xed",
          "removed": false
        },
        {
          "address": "0xd69b4f5faf6e3626f1e9c595a170f388798f713d",
          "topics": [
            "0x13518841ff4d3053cb7703afaa39b145c6331829b982d42f4d4fd7568b2e8e24",
            "0x0000000000000000000000000a8d6c86e1bce73fe4d0bd531e1a567306836ea5"
          ],
          "data": "0x0000000000000000000000000000000000000000000000000000000000000001",
          "blockHash": "0xd2b787516fe9ea0df1e5f0e234a0459cdde25d7380365c3ed3934bef9313b391",
          "blockNumber": "0x6ca64a0",
          "blockTimestamp": "0x6a32be23",
          "transactionHash": "0x31990a2d90276fb854b7b28b830bb6697f731b604e86d0efb30be266deb67c5f",
          "transactionIndex": "0x21",
          "logIndex": "0xee",
          "removed": false
        },
        {
          "address": "0xd69b4f5faf6e3626f1e9c595a170f388798f713d",
          "topics": [
            "0x13518841ff4d3053cb7703afaa39b145c6331829b982d42f4d4fd7568b2e8e24",
            "0x0000000000000000000000000c8382719ef242cae2247e4decb2891fbf699818"
          ],
          "data": "0x0000000000000000000000000000000000000000000000000000000000000001",
          "blockHash": "0xd2b787516fe9ea0df1e5f0e234a0459cdde25d7380365c3ed3934bef9313b391",
          "blockNumber": "0x6ca64a0",
          "blockTimestamp": "0x6a32be23",
          "transactionHash": "0x31990a2d90276fb854b7b28b830bb6697f731b604e86d0efb30be266deb67c5f",
          "transactionIndex": "0x21",
          "logIndex": "0xef",
          "removed": false
        },
        {
          "address": "0xd69b4f5faf6e3626f1e9c595a170f388798f713d",
          "topics": [
            "0x13518841ff4d3053cb7703afaa39b145c6331829b982d42f4d4fd7568b2e8e24",
            "0x00000000000000000000000023ae4fd8e7844cdbc97775496ebd0e8248656028"
          ],
          "data": "0x0000000000000000000000000000000000000000000000000000000000000001",
          "blockHash": "0xd2b787516fe9ea0df1e5f0e234a0459cdde25d7380365c3ed3934bef9313b391",
          "blockNumber": "0x6ca64a0",
          "blockTimestamp": "0x6a32be23",
          "transactionHash": "0x31990a2d90276fb854b7b28b830bb6697f731b604e86d0efb30be266deb67c5f",
          "transactionIndex": "0x21",
          "logIndex": "0xf0",
          "removed": false
        }
      ],
      "logsBloom": "0x00000000000000000000000100004000000040000000000000000000000048000000002000000004000000000000000000100000000010000000800000000000e11000000000000000000200008500208000000000008400000010408000000000203000000000800000000000000000002000402021000000010000000000000000000401022000000000000000000000000800000200800000000000100000000000000000000000000000000004000000000000000100000000000000200000020000000000000000000000004000200000000000000000000000004000000000000000000000000000000000000000000000000000000000000000000000",
      "type": "0x0",
      "transactionHash": "0x31990a2d90276fb854b7b28b830bb6697f731b604e86d0efb30be266deb67c5f",
      "transactionIndex": "0x21",
      "blockHash": "0xd2b787516fe9ea0df1e5f0e234a0459cdde25d7380365c3ed3934bef9313b391",
      "blockNumber": "0x6ca64a0",
      "gasUsed": "0x62fcc",
      "effectiveGasPrice": "0x5f5e100",
      "from": "0x3660362beb3a95ce16d981e7d30e1e025e741393",
      "to": "0xd69b4f5faf6e3626f1e9c595a170f388798f713d",
      "contractAddress": null
    }
  ],
  "libraries": [],
  "pending": [],
  "returns": {},
  "timestamp": 1781710371730,
  "chain": 97,
  "commit": null
}